:020000040800F2
:1000000000500020C13D0008C1380008C338000876
:10001000C5380008C7380008C938000800000000CB
:10002000000000000000000000000000CB380008C5
:10003000CD38000800000000CF380008D138000893
:10004000093E0008093E0008093E0008093E000874
:10005000093E0008093E0008093E0008093E000864
:10006000093E0008093E0008093E0008093E000854
:10007000093E0008093E0008093E0008093E000844
:10008000093E0008093E0008093E0008093E000834
:10009000D9380008093E0008093E0008093E00085A
:1000A000093E0008093E0008093E0008093E000814
:1000B000093E0008093E0008093E0008093E000804
:1000C000093E0008093E0008093E0008093E0008F4
:1000D000093E0008093E0008093E0008093E0008E4
:1000E000093E0008093E0008093E00080000000023
:1000F0000000000000000000000000000000000000
:0C01000000000000000000005FF808F1A3
:10010C0010B5054C237833B9044B13B10448AFF345
:10011C0000800123237010BDE001002000000000CE
:10012C004C4C000808B5034B1BB103490348AFF313
:10013C00008008BD00000000E40100204C4C0008C9
:10014C0010B504460E4B18784FF47A73B3FBF0F3EA
:10015C000C4A1068B0FBF3F000F0A2F868B90F2C51
:10016C0001D901200AE0002221464FF0FF3000F0B7
:10017C0055F8034B5C60002000E0012010BD00BF6F
:10018C00000000201801002008B5074A136843F04E
:10019C0010031360032000F02FF80020FFF7D0FFAE
:1001AC0003F034FB002008BD00200240034A116814
:1001BC00034B1B780B441360704700BF30040020C6
:1001CC0000000020014B1868704700BF300400206D
:1001DC0038B50446FFF7F6FF0546B4F1FF3F02D0F1
:1001EC00044B1B781C44FFF7EDFF401BA042FAD3D5
:1001FC0038BD00BF00000020074AD36823F4E06339
:10020C001B041B0C000200F4E060184340F0BF60BC
:10021C0040F40030D060704700ED00E030B4174B74
:10022C00DB68C3F30223C3F10704042C28BF0424A6
:10023C001D1D062D18D9033B4FF0FF3505FA04F4AC
:10024C0021EA0401994005FA03F322EA0303194356
:10025C0000280BDB0901C9B200F1604000F56140D8
:10026C0080F8001330BC70470023E5E700F00F0066
:10027C000901C9B2024B1954F4E700BF00ED00E0CC
:10028C0014ED00E0002807DB00F01F0240090123F9
:10029C009340024A42F82030704700BF00E100E072
:1002AC000138B0F1807F0AD2064B5860064AF02123
:1002BC0082F823100020986007221A6070470120F2
:1002CC00704700BF10E000E000ED00E0F0B482B039
:1002DC0000263246A2E0002D5AD0012D00D1CE6866
:1002EC00FF2B69D88446FF2B69D89500DCF80040B9
:1002FC000F27AF4024EA070406FA05F52C43CCF887
:10030C0000404C6814F0805F00F087805F4CA5695A
:10031C0045F00105A561A46904F001040194019C58
:10032C009508AF1C5A4C54F8274002F00307BF0045
:10033C004FF00F0C0CFA07FC24EA0C0C554CA042A5
:10034C0043D004F58064A04200F0818004F5806401
:10035C00A0427ED004F58064A04234D0042435E061
:10036C004D4FBD4214D00BD94C4FBD4210D007F5A8
:10037C008037BD420CD0A7F58017BD42B0D107E045
:10038C00A7F58017BD4203D007F58037BD42A7D132
:10039C008D687DB1012D08D044610826A0E7CE6898
:1003AC0008369DE7CE680C369AE70461082697E775
:1003BC00002695E7042693E700F1040C93E7A2F1DD
:1003CC000805AD0092E7032400E00024BC4044EA99
:1003DC000C0402352E4F47F825404C6814F4803F2E
:1003EC0039D02F4D2C681C432C604C6814F4003F02
:1003FC0037D02B4D6C681C436C604C6814F4801F18
:10040C0035D0274DAC681C43AC604C6814F4001F0D
:10041C0033D0234DEC682343EB6001320B6833FA85
:10042C0002F430D00124944023409C42F5D14D6815
:10043C00122DB7D094D8022DB1D07FF64CAF032D2E
:10044C00B6D0112D7FF44CAFCE68043648E70124AA
:10045C00BCE70224BAE7124D2C6824EA03042C6092
:10046C00C3E70F4D6C6824EA03046C60C5E70C4DC0
:10047C00AC6824EA0304AC60C7E7094DEC6824EAD5
:10048C000303EB60C9E702B0F0BC704700100240F8
:10049C000000014000080140000021100000311054
:1004AC000004014012B909040161704701617047F1
:1004BC00C3680B4201D10161704741617047036809
:1004CC005A6912F4806F11D06FF480625A61002364
:1004DC000363202280F83D2080F83E30026C42F00D
:1004EC000402026480F83C30012070470020704701
:1004FC00F8B506460C4617461D4622E0FFF762FE8D
:10050C00069BC01AA84200D8DDB900233363202211
:10051C0086F83D2086F83E30326C42F02002326480
:10052C0086F83C3001201AE033685B6924EA030347
:10053C009BB2B3FA83F35B099F420FD1B5F1FF3F36
:10054C00DCD1C4F30743012BEED033689B6924EA5A
:10055C0003039BB2B3FA83F35B09EDE70020F8BD0C
:10056C00F8B504460D4616461F463CE01A6842F4A0
:10057C0000721A6023686FF480625A61002323634F
:10058C00202284F83D2084F83E30226C42F0040294
:10059C00226484F83C30012033E0FFF713FEC01BCB
:1005AC00B04200D8FEB900232363202284F83D20FA
:1005BC0084F83E30226C42F02002226484F83C30F5
:1005CC0001201EE023685B6925EA03039BB200331C
:1005DC0018BF0123A3B123685A6912F4806FC5D1E7
:1005EC00B6F1FF3FD9D1C5F30743012BEAD02368FD
:1005FC009B6925EA03039BB2003318BF0123E9E78B
:10060C000020F8BDF0B583B004460F4615461E46D3
:10061C00C36A082B0DD0012B0BD013F5803F08D0EB
:10062C00036B122B0AD10268136843F480731360B6
:10063C0004E02268136843F48073136000962B4621
:10064C0000224FF001112046FFF752FF18BB23691F
:10065C00B3F5804F0DD1236807F0FE071F613346B9
:10066C002A4610492046FFF77BFF0346A0B1012321
:10067C0012E0FB11226803F0060343F0F003136150
:10068C0033462A4608492046FFF76AFF38B92368E3
:10069C00FFB21F61E3E70123184603B0F0BD01234D
:1006AC00FAE700BF02000100080001002DE9F0414B
:1006BC0084B004460D4616461F46C26A01680B6894
:1006CC0043F480630B60082A0DD0012A0BD012F57D
:1006DC00803F08D0036B112B0AD10268136843F4D6
:1006EC008073136004E02268136843F48073136012
:1006FC000097334600224FF001112046FFF7F8FE19
:10070C00002849D12369B3F5804F0FD1236845F0F8
:10071C000105EDB21D613B46324623492046FFF7E9
:10072C001FFF0346002838D0012336E04FEAE518B6
:10073C0008F00608236848F0F0021A613B4632467E
:10074C001A492046FFF70CFF08B1012325E0236866
:10075C00EDB21D613B46324613492046FFF700FFC0
:10076C0008B1012319E0002203922368596903910F
:10077C00996903910399196841F480711960009784
:10078C0033464FF001112046FFF7B2FE48B92268FC
:10079C0048F0F1031361BEE70123184604B0BDE82D
:1007AC00F0810123F9E700BF0200010008000100FD
:1007BC0070B504460D46164623685B6913F0800F2E
:1007CC001CD12046FFF77BFED0B9B5F1FF3FF3D02B
:1007DC00FFF7F8FC801BA84201D8002DECD10023B8
:1007EC002363202284F83D2084F83E30226C42F0B2
:1007FC002002226484F83C30012000E0002070BD0F
:10080C000120FCE770B504460D46164623685B696B
:10081C0013F0040F1CD12046FFF751FED0B9B5F1EF
:10082C00FF3FF3D0FFF7CEFC801BA84201D8002D70
:10083C00ECD100232363202284F83D2084F83E3041
:10084C00226C42F02002226484F83C30012000E04B
:10085C00002070BD0120FCE770B505460C4616461D
:10086C002B685A6912F0400F29D15A6912F0100FF7
:10087C0015D1FFF7A7FC801BA04201D8002CEFD1AB
:10088C0000232B63202285F83D2085F83E302A6C0E
:10089C0042F020022A6485F83C30012070BD6FF0D4
:1008AC0010025A6100232B63202285F83D2085F825
:1008BC003E302A6C2A6485F83C300120EEE700209B
:1008CC00ECE70000002800F0BE80F8B5044690F874
:1008DC003D30002B6BD0242384F83D302268136804
:1008EC0023F00103136001F045FA6268584B9A42F9
:1008FC0062D8584B98428CBF00230123002B40F048
:10090C00A480554BA3FB00239B0C21684A6822F062
:10091C003F021A434A6025682A6A22F03F02666841
:10092C004B498E424ED8013313432B622568E9693B
:10093C0021F44F4121F0FF016368454A93424BD8A3
:10094C0001385B00B0FBF3F30133C3F30B03042B4F
:10095C0038BF04230B43EB6121680B6823F0C00301
:10096C00E269206A024313430B6021688B6823F40D
:10097C00034323F0FF032269E068024313438B60B7
:10098C002168CB6823F0FF036269A069024313431B
:10099C00CB602268136843F00103136000202064CD
:1009AC00202384F83D30206384F83E00F8BD80F8A5
:1009BC003C3002F04DFF8EE7284B98428CBF002351
:1009CC0001239BE74FF4967101FB03F32449A1FB30
:1009DC0003139B090133A7E7A268BAB9461E03EBC0
:1009EC004307B6FBF7F60136C6F30B06B6FA86F6E6
:1009FC00760936BBC2B9013803EB4303B0FBF3F302
:100A0C000133C3F30B0242F40043A3E7461E03EB8E
:100A1C00830707EB8707B6FBF7F60136C6F30B0621
:100A2C00B6FA86F67609E4E7013803EB830303EBA9
:100A3C008303B0FBF3F20132C2F30B0242F44043E6
:100A4C0088E7012386E7012070470120AEE700BF4D
:100A5C00A08601007F841E0083DE1B43FF083D003F
:100A6C00D34D62102DE9F04184B004460E469046F9
:100A7C001F46FFF7A7FB94F83D30DBB2202B04D0C8
:100A8C000226304604B0BDE8F081054600901923DB
:100A9C0001224F492046FFF72BFD002840F09180A2
:100AAC0094F83C30012B00F08E80012384F83C300C
:100ABC0023681A6812F0010F03D11A6842F0010280
:100ACC001A602268136823F400631360212384F8EE
:100ADC003D30102384F83E3000232364C4F8248076
:100AEC006785638D23853B4BE3622B460A9A31461F
:100AFC002046FFF787FD0646002866D100230393A6
:100B0C0023685A6903929B690393039B12E0236C3D
:100B1C00042B01D00126B4E72268136843F4007358
:100B2C0013600126ADE72A460A992046FFF76AFEB4
:100B3C0000282CD1238D002B35D02A460A9920462B
:100B4C00FFF736FE0028E2D1626A236812781A6138
:100B5C00616A4B1C6362638D013B9BB26385238D81
:100B6C00013B9BB223852268506910F0040FDAD048
:100B7C00002BD8D04B781361636A01336362638DA9
:100B8C00013B9BB26385238D013B2385CBE7236C13
:100B9C00042B01D0012674E72268136843F4007318
:100BAC00136001266DE72268136843F40073136029
:100BBC00202384F83D30002384F83E3084F83C3008
:100BCC005FE702265DE702265BE7012659E700BFD7
:100BDC00020010000000FFFF2DE9F04186B0044632
:100BEC000E4690461F46FFF7EDFA94F83D30DBB207
:100BFC00202B04D00226304606B0BDE8F081054615
:100C0C000090192301228A492046FFF771FC002825
:100C1C0040F0448194F83C30012B00F041810123D9
:100C2C0084F83C3023681A6812F0010F03D11A685B
:100C3C0042F001021A602268136823F40063136007
:100C4C00222384F83D30102384F83E3000232364A3
:100C5C00C4F824806785638D2385764BE3622B462D
:100C6C000C9A31462046FFF721FD0646002840F03D
:100C7C001981238D5BB9029323685A6902929A6990
:100C8C000292029A1A6842F400721A607DE0012BFB
:100C9C000FD0022B21D02268136843F480631360B9
:100CAC000023059323685A6905929B690593059B5C
:100CBC006BE02268136823F48063136072B6002320
:100CCC00039323685A6903929A690392039A1A68E8
:100CDC0042F400721A6062B657E02268136843F45B
:100CEC000063136072B60023049323685A6904925C
:100CFC009A690492049A1A6822F480621A6062B6A5
:100D0C0043E02A460C992046FFF7A6FD002840F048
:100D1C00CB8023681A69636A1A70636A0133636251
:100D2C00238D013B2385638D013B9BB263852CE0B6
:100D3C0000950C9B002240492046FFF7D9FB002868
:100D4C0040F0B48072B62268136843F400731360E9
:100D5C0023681A69636A1A70636A01336362238DAC
:100D6C00013B2385638D013B9BB2638562B623688F
:100D7C001A69636A1A70636A01336362238D013BDB
:100D8C002385638D013B9BB26385238D002B7CD027
:100D9C00032B53D8012BB4D0022BC9D000950C9B3C
:100DAC00002225492046FFF7A3FB002840F0808055
:100DBC002268136823F48063136072B623681A697F
:100DCC00636A1A70636A01336362238D013B238566
:100DDC00638D013B9BB2638500950C9B00221649E9
:100DEC002046FFF785FB002864D12268136843F482
:100DFC000073136023681A69636A1A70636A01339B
:100E0C006362238D013B2385638D013B9BB263851C
:100E1C0062B623681A69636A1A70636A0133636283
:100E2C00238D013B2385638D013B9BB26385ACE72E
:100E3C00020010000000FFFF040001002A460C997C
:100E4C002046FFF709FD002836D123681A69636A2A
:100E5C001A70626A531C6362238D013B2385638D78
:100E6C00013B9BB263852368596911F0040F8CD048
:100E7C001B695370636A01336362238D013B2385C5
:100E8C00638D013B9BB263857FE7202384F83D3063
:100E9C00002384F83E3084F83C30ACE60226AAE607
:100EAC000226A8E60126A6E60126A4E60126A2E66D
:100EBC000126A0E601269EE601269CE6F0B587B049
:100ECC00002873D0044690F82932D3B1032384F858
:100EDC002932206800F0F7FF254655F8107B6E4646
:100EEC000FCD0FC62B683360231D0ECB384600F098
:100EFC00DBFF58B1022384F829320125284607B0BC
:100F0C00F0BD80F8283202F0B7FDDFE70021206841
:100F1C0000F0E3FF002311E004EB4312012182F8FF
:100F2C00291082F82830D386002182F82B10916387
:100F3C00D1639A1C5201A1500133DBB26068834229
:100F4C00EAD3002312E004EB4311002281F829219B
:100F5C0081F8283181F82B21C1F83821C1F83C21C6
:100F6C0003F10A01490162500133DBB29842EAD81D
:100F7C00254655F8107B6E460FCD0FC62B68336097
:100F8C00231D0ECB384600F0AAFF054620B10223E4
:100F9C0084F829320125B1E7002384F82430012399
:100FAC0084F82932206801F0CCFAA7E70125A5E7DF
:100FBC0090F82832012B10D010B50446012180F88E
:100FCC00281202F064FE206801F0B9FA206800F0E3
:100FDC0072FF002084F8280210BD0220704790F8A0
:100FEC002832012B0DD010B50446012380F828328D
:100FFC0080F82410006801F09CFA002084F8280284
:10100C0010BD0220704770B511F0800F23D101F094
:10101C0007056D0105F5947404440544002685F814
:10102C00296101F0070121702261E370627802B13D
:10103C00E181022B1AD090F82832012B19D00546E9
:10104C00012380F828322146006800F05EFF002062
:10105C0085F8280270BD01F007056D0105F1280423
:10106C0004440544012685F82960DAE7002323713E
:10107C00E1E70220EEE710B511F0800F1CD101F072
:10108C0007035B0103F5947202440344002483F8C4
:10109C00294101F00703137090F82832012B16D068
:1010AC000446012380F828321146006801F0E1F86B
:1010BC00002084F8280210BD01F007035B0103F146
:1010CC00280202440344012483F82940E1E702206A
:1010DC00F1E770B501F007056C0104F5947101445A
:1010EC000444C4F83C2105F10A02520186188350CD
:1010FC000023736084F8293184F8285125B10068E5
:10110C0001F03BFA002070BD006801F036FAF9E7F7
:10111C0001F007010A3100EB41114868704770B5C6
:10112C0001F007056C0104F1280101440444E26359
:10113C00AA1C52018618835000237360012384F883
:10114C00293084F8285025B1006801F016FA0020E7
:10115C0070BD006801F011FAF9E7F8B50446206893
:10116C00B0F8443013F4004F00F0AD81B0F84430C7
:10117C009BB213F00F0540F0CD8013F0100F58D038
:10118C0003889BB213F4006F40F0898013F4004F76
:10119C00E5D0038823F070031B051B0D43F080037F
:1011AC0003802068B0F8503094F8282103EBC20378
:1011BC00063300EB4303B3F80034C3F30903C4F85C
:1011CC0044318BB1D4F83C1171B1B4F82E2101F03B
:1011DC0064FBD4F84421D4F83C311344C4F83C31BA
:1011EC000021204602F070FC2368B3F85020134411
:1011FC00D4F83821002A74D1B3F80C2492B222F41A
:10120C00F84292B2A3F80C24B3F80C2442F4004236
:10121C00A3F80C24226813889BB223F4804323F098
:10122C00700383F4405343F4004343F08003138072
:10123C0095E703889BB223F4E14323F070036FEA34
:10124C0043436FEA53439BB203802268B2F8503099
:10125C0094F8281003EBC103023302EB4303B3F8F9
:10126C000034C3F309036364E26B1344E3630021AA
:10127C00204602F033FC94F82430002B3FF46FAF7F
:10128C00236C002B7FF46BAF94F82430226843F06E
:10129C008003A2F84C30002384F824305FE7B0F8C8
:1012AC00503094F8282103EBC203063300EB4303C0
:1012BC00B3F80034C3F30903C4F84431B4F82E2155
:1012CC0004F50C7101F0E9FA2268138823F070031D
:1012DC001B051B0D43F080031380204602F0ECFB32
:1012EC003DE73E2A09D8510812F0010F00D0013118
:1012FC00890289B2A3F80C148CE7510912F01F0F64
:10130C0000D101396FEAC1626FEA524292B2A3F87E
:10131C000C247FE730F82560B6B216F4004F33D1B9
:10132C0016F0800F3FF41BAF226832F825309BB2C9
:10133C0023F4E14323F070036FEA43436FEA534312
:10134C009BB222F825302268B2F8503004EB4510DD
:10135C0090F8281003EBC103023302EB4303B3F8FC
:10136C000024C2F30902AB1C5B01E1184A60C16B9B
:10137C000A44C263E358002B40F09D8090F828107B
:10138C00204602F0ABFBEAE630F8253023F0700380
:10139C001B051B0D43F0800320F8253004EB45138F
:1013AC0093F83431D3B92068B0F8503004EB4512BF
:1013BC0092F8282103EBC203063300EB4303B3F886
:1013CC000074C7F309078FB304EB45113B46B1F822
:1013DC002E21D1F83C1101F060FA27E0206804EBD3
:1013EC00451393F8282130F8223013F4804F43D062
:1013FC00B0F8503003EBC203023300EB4303B3F8F5
:10140C000074C7F309076FBB226804EB451393F80C
:10141C00281132F821309BB223F4E04323F07003FF
:10142C0043F4004343F0C00322F8213005F10A03D2
:10143C005B01E1184A683A444A6004EB4511D1F863
:10144C003C213A44C1F83C21E3581BB1D1F8381186
:10145C008F4228D204EB451393F82811204602F052
:10146C0033FB5DE704EB45113B46B1F83021D1F875
:10147C003C1101F012FAC7E7B0F8503003EBC2038D
:10148C00063300EB4303B3F80074C7F30907002FCE
:10149C00BAD004EB45113B46B1F83221D1F83C11DE
:1014AC0001F0FBF9B0E704EB451191F82811204647
:1014BC00FFF70FFE34E704EB451595F8281020468E
:1014CC00FFF72DFE4BE60020F8BD10B50446006872
:1014DC0001F039F810F4004F45D1206801F033F8D1
:1014EC0010F4806F43D1206801F02DF810F4804F78
:1014FC0008D02268B2F844309BB223F480439BB2EC
:10150C00A2F84430206801F01EF810F4005F08D0F7
:10151C002268B2F844309BB223F400539BB2A2F879
:10152C004430206801F00FF810F4805F30D120684F
:10153C0001F009F810F4006F49D1206801F003F8AC
:10154C0010F4007F6DD1206800F0FDFF10F4807F57
:10155C0008D02268B2F844309BB223F480739BB25B
:10156C00A2F8443010BD2046FFF7F7FDB5E722681E
:10157C00B2F844309BB223F480639BB2A2F844309F
:10158C00204602F0BAFA00212046FFF728FDAAE710
:10159C002268B2F840309BB223F004039BB2A2F84D
:1015AC0040302268B2F840309BB223F008039BB263
:1015BC00A2F84030204602F0C1FA2268B2F844305A
:1015CC009BB223F480539BB2A2F84430AFE722685D
:1015DC00B2F8403043F00803A2F840302268B2F869
:1015EC0044309BB223F400639BB2A2F844302268CF
:1015FC00B2F8403043F00403A2F84030206800F009
:10160C00A2FF10F4805F08D02268B2F844309BB27D
:10161C0023F480539BB2A2F84430204602F07EFAA9
:10162C008BE72268B2F844309BB223F400739BB270
:10163C00A2F84430204602F05AFA84E738B501F09B
:10164C00070543689D422CD811F0800F1AD14B012D
:10165C0003F5947101440344002283F829210123EA
:10166C008B700D7090F82832012B1CD0044601238E
:10167C0080F82832006800F0E6FE65B1002084F89E
:10168C0028020FE06B0103F12801014403440122FD
:10169C0083F82920E3E704F50C71206800F056FF6D
:1016AC00ECE7012038BD0220FCE701F00F02436893
:1016BC009A422DD810B511F0800F1ED101F00703FE
:1016CC005B0103F5947202440344002483F829411E
:1016DC000023937001F00703137090F82832012B4C
:1016EC0018D00446012380F828321146006800F017
:1016FC00CFFE002084F8280210BD01F007035B0127
:10170C0003F1280202440344012483F82940DFE753
:10171C00012070470220EFE711F0800F0CD001F090
:10172C0007014901283101445AB101220A730B8186
:10173C001B0C4B8100207047490101F59471014449
:10174C00F2E70A73CB80F5E782B0084B1B68084AB6
:10175C00A2FB03235B0A00FB03F0019000BF019B7B
:10176C005A1E0192002BF9D102B0704718010020CB
:10177C00D34D6210002800F0F58170B582B004469C
:10178C00036813F0010F2CD0AB4B5B6803F00C0318
:10179C00042B1DD0A84B5B6803F00C03082B12D054
:1017AC006368B3F5803F41D0002B55D103F18043E2
:1017BC0003F504331A6822F480321A601A6822F492
:1017CC0080221A6037E09C4B5B6813F4803FE7D0B3
:1017DC00994B1B6813F4003F03D06368002B00F097
:1017EC00C381236813F0020F76D0934B5B6813F020
:1017FC000C0F5FD0904B5B6803F00C03082B54D09C
:10180C002369002B00F08A808C4B01221A60FEF7B2
:10181C00D9FC0546884B1B6813F0020F75D1FEF7F7
:10182C00D1FC401B0228F5D90320A0E1824A1368A1
:10183C0043F480331360636843B3FEF7C3FC05467F
:10184C007D4B1B6813F4003FCBD1FEF7BBFC401B58
:10185C006428F5D903208AE1B3F5A02F09D0764B83
:10186C001A6822F480321A601A6822F480221A60F4
:10187C00E1E703F18043A3F53C331A6842F480227C
:10188C001A601A6842F480321A60D4E7FEF79AFCA8
:10189C000546694B1B6813F4003FA2D0FEF792FC7F
:1018AC00401B6428F5D9032061E1634B5B6813F49A
:1018BC00803FA5D1604B1B6813F0020F04D0236945
:1018CC00012B01D0012052E15B4A136823F0F8038D
:1018DC00616943EAC1031360236813F0080F32D027
:1018EC00A369002B5BD0564B01221A60FEF76AFCF1
:1018FC000546514B5B6A13F0020F21D1FEF762FCD7
:10190C00401B0228F5D9032031E14B4A136823F020
:10191C00F803616943EAC1031360DDE7474B00221A
:10192C001A60FEF74FFC0546434B1B6813F0020F81
:10193C00D2D0FEF747FC401B0228F5D9032016E154
:10194C000120FFF701FF236813F0040F00F09880CB
:10195C00394BDB6913F0805F33D1374BDA6942F0D6
:10196C008052DA61DB6903F080530193019B0125FE
:10197C00344B1B6813F4807F25D0E368012B36D0E1
:10198C00002B4CD103F1804303F504331A6A22F087
:10199C0001021A621A6A22F004021A622CE0284B25
:1019AC0000221A60FEF70EFC0546234B5B6A13F00F
:1019BC00020FC8D0FEF706FC401B0228F5D9032005
:1019CC00D5E00025D4E71F4A136843F480731360F5
:1019DC00FEF7F8FB06461B4B1B6813F4807FCCD13B
:1019EC00FEF7F0FB801B6428F5D90320BFE0124AF8
:1019FC00136A43F001031362E3687BB3FEF7E2FB67
:101A0C0006460D4B1B6A13F0020F38D1FEF7DAFBBA
:101A1C00801B41F288339842F3D90320A7E0052BB1
:101A2C0012D0054B1A6A22F001021A621A6A22F0CD
:101A3C0004021A62E0E700BF0010024000004242BC
:101A4C0080044242007000404C4B1A6A42F004027F
:101A5C001A621A6A42F001021A62CDE7FEF7B2FB73
:101A6C000646464B1B6A13F0020F08D0FEF7AAFB82
:101A7C00801B41F288339842F3D9032077E0E5B913
:101A8C00E369002B72D03D4A526802F00C02082A1E
:101A9C0056D0022B17D03A4B00221A60FEF792FB5D
:101AAC000446364B1B6813F0007F47D0FEF78AFBC9
:101ABC00001B0228F5D9032059E0304AD36923F0E2
:101ACC008053D361DCE72E4B00221A60FEF77AFBC1
:101ADC0005462A4B1B6813F0007F06D0FEF772FBFD
:101AEC00401B0228F5D9032041E0236AB3F5803F5F
:101AFC001AD022494B6823F47413226A606A024399
:101B0C0013434B601E4B01221A60FEF75BFB04462D
:101B1C001A4B1B6813F0007F0ED1FEF753FB001B12
:101B2C000228F5D9032022E0144A536823F4003329
:101B3C00A1680B435360DCE7002018E0002016E09E
:101B4C00012B16D00D4B5B6803F48031226A914255
:101B5C0001D001200BE003F47013626A93420AD0A7
:101B6C00012004E001207047012000E0002002B0B9
:101B7C0070BD0120FBE70020F9E700BF0010024018
:101B8C0060004242014B01221A6070474C004242F5
:101B9C0010B487B0164C94E80F000DF1180C0CE93A
:101BAC000F00238AADF80430124B5B6803F00C0273
:101BBC00082A1AD1C3F38342624412F8102C13F48E
:101BCC00803F05D10C4800FB02F007B010BC7047F9
:101BDC00084B5B68C3F34043634413F8143C074859
:101BEC0000FB02F0B0FBF3F0EFE70448EDE700BFB9
:101BFC00644C00080010024000093D0000127A00FD
:101C0C00002800F0A38070B50446524B1B6803F00B
:101C1C0007038B420CD24F4A136823F007030B4384
:101C2C001360136803F007038B4201D0012070BDD1
:101C3C00236813F0020F17D013F0040F04D0464A98
:101C4C00536843F4E0635360236813F0080F04D027
:101C5C00414A536843F4605353603F4A536823F03E
:101C6C00F003A068034353600D46236813F0010F83
:101C7C0031D06368012B20D0022B25D0364A126854
:101C8C0012F0020F64D034494A6822F00302134365
:101C9C004B60FEF797FA06462F4B5B6803F00C037C
:101CAC006268B3EB820F16D0FEF78CFA801B41F200
:101CBC0088339842F0D90320B9E7274A126812F406
:101CCC00003FE0D10120B2E7234A126812F0007FF6
:101CDC00D9D10120ABE71F4B1B6803F00703AB42C4
:101CEC000CD91C4A136823F007032B4313601368A9
:101CFC0003F00703AB4201D0012098E7236813F0EF
:101D0C00040F06D0144A536823F4E063E1680B43D4
:101D1C005360236813F0080F07D00F4A536823F45D
:101D2C006053216943EAC1035360FFF731FF0A4B4B
:101D3C005B68C3F30313094AD35CD840084B1860A3
:101D4C00084B1868FEF7FCF9002070E7012070477B
:101D5C0001206CE70020024000100240784C000883
:101D6C001801002004000020014B1868704700BFC8
:101D7C001801002008B5FFF7F7FF044B5B68C3F3AD
:101D8C000223034AD35CD84008BD00BF00100240B8
:101D9C00884C000870B582B00446036813F0010F3C
:101DAC0034D03E4BDB6913F0805F48D13B4BDA6992
:101DBC0042F08052DA61DB6903F080530193019B9E
:101DCC000125374B1B6813F4807F3AD0334B1B6AC9
:101DDC0013F4407311D0626802F440729A420CD032
:101DEC002E4A136A23F440702E4901260E600026F9
:101DFC000E60106213F0010F37D1284A136A23F4D6
:101E0C00407361680B431362002D3FD1236813F0BC
:101E1C00020F06D0214A536823F44043A1680B43B8
:101E2C005360236813F0100F35D01C4A536823F409
:101E3C008003E1680B435360002002B070BD0025A5
:101E4C00BFE7174A136843F480731360FEF7BAF9BF
:101E5C000646134B1B6813F4807FB7D1FEF7B2F91B
:101E6C00801B6428F5D90320E7E7FEF7ABF906469B
:101E7C000A4B1B6A13F0020FBFD1FEF7A3F9801BAC
:101E8C0041F288339842F3D90320D6E7D36923F083
:101E9C008053D361BAE70020CFE700BF00100240A7
:101EAC00007000404004424284B001A880E80E005B
:101EBC00002004B07047B0F8403043F43F43A0F822
:101ECC00403000207047B0F8403023F47C535B0462
:101EDC005B0CA0F84030002070470020704784B0A5
:101EEC0038B505AC84E80E000123A0F8403000247E
:101EFC00A0F84040A0F84440A0F85040FFF7DBFFAA
:101F0C002046BDE8384004B0704730B403460C7826
:101F1C0030F8242092B222F4EC4222F0700292B2F9
:101F2C00C87803285AD8DFE800F04D55025100203C
:101F3C0048F280052A4323F824200C7833F8242017
:101F4C0092B222F4E04222F0700222432A4323F898
:101F5C0024200A7B002A40F0B1804A78002A4ED017
:101F6C00B3F850201A440C7802EB0412CC886408A5
:101F7C006400A2F800440C7833F8242012F0400FCF
:101F8C000CD033F8242092B222F4E04222F07002FA
:101F9C0042F4004242F0C00223F82420CA78012AFD
:101FAC001ED0097833F8212092B222F4E04222F0BC
:101FBC00400282F0200242F4004242F0800223F8F8
:101FCC00212060E042F400720020B1E742F4C062CC
:101FDC000020ADE742F480620020A9E70120A7E7CA
:101FEC00097833F8212092B222F4E04222F0400228
:101FFC0042F4004242F0800223F8212043E0B3F87F
:10200C0050201A440C7802EB0412CC88640864004B
:10201C00A2F80844B3F850201A440C7802EB0412CE
:10202C000C6994BBB2F80C44A4B224F4F844A4B2E6
:10203C00A2F80C44B2F80C4444F40044A2F80C444A
:10204C000C7833F8242012F4804F0CD033F8242071
:10205C0092B222F4E04222F0700242F4404242F08A
:10206C00800223F82420097833F8212092B222F43C
:10207C00804222F0700282F4405242F4004242F05C
:10208C00800223F8212030BC70473E2C09D865080B
:10209C0014F0010F00D00135AD02ADB2A2F80C5412
:1020AC00CEE7650914F01F0F00D1013D6FEAC5643E
:1020BC006FEA5444A4B2A2F80C44C1E70C7833F88C
:1020CC00242092B222F4E04222F0700242F4014247
:1020DC0042F0800223F82420B3F850201A440C78E4
:1020EC0002EB04120C8964086400A2F80044B3F8F3
:1020FC0050201A440C7802EB04124C8964086400DA
:10210C00A2F808444A78002A4ED10C7833F82420DF
:10211C0012F4804F0CD033F8242092B222F4E04217
:10212C0022F0700242F4404242F0800223F8242054
:10213C000C7833F8242012F0400F0CD033F8242004
:10214C0092B222F4E04222F0700242F4004242F0D9
:10215C00C00223F824200C7833F8242092B222F405
:10216C00E04222F0700242F4004242F0C00223F836
:10217C0024200D7833F8252092B222F4804222F0EC
:10218C00700282F4405248F28004224323F8252046
:10219C00097833F8212092B222F4E04222F0400276
:1021AC00224323F821206EE70C7833F8242012F414
:1021BC00804F0CD033F8242092B222F4E04222F06B
:1021CC00700242F4404242F0800223F824200C7842
:1021DC0033F8242012F0400F0CD033F8242092B2A4
:1021EC0022F4E04222F0700242F4004242F0C002BB
:1021FC0023F824200C7833F8242092B222F4E04205
:10220C0022F0700242F4404242F0800223F8242073
:10221C00CA78012A1ED00C7833F8242092B222F40A
:10222C00E04222F0400282F0200242F4004242F0EE
:10223C00800223F82420097833F8212092B222F46A
:10224C00804222F0700242F4004242F0800223F8F5
:10225C00212018E70C7833F8242092B222F4E042C3
:10226C0022F0400242F4004242F0800223F8242083
:10227C00E1E70B7B002B46D14B7813B30A7830F88F
:10228C00223013F0400F0CD030F822309BB223F4E4
:10229C00E04323F0700343F4004343F0C00320F801
:1022AC0022300A7830F822309BB223F4E04323F03A
:1022BC00400343F4004343F0800320F82230002015
:1022CC0070470A7830F8223013F4804F0CD030F875
:1022DC0022309BB223F4E04323F0700343F44043D9
:1022EC0043F0800320F822300A7830F822309BB279
:1022FC0023F4804323F0700343F4004343F0800342
:10230C0020F82230DBE710B44B78002B4ED10A7842
:10231C0030F8223013F4804F0CD030F822309BB2BE
:10232C0023F4E04323F0700343F4404343F0800371
:10233C0020F822300A7830F8223013F0400F0CD0FD
:10234C0030F822309BB223F4E04323F0700343F4C3
:10235C00004343F0C00320F822300A7830F82230D2
:10236C009BB223F4E04323F0700343F4004343F0A7
:10237C00C00320F822300B7830F8232092B222F4DC
:10238C00804222F0700248F28004224320F823207D
:10239C000A7830F822309BB223F4E04323F0400358
:1023AC00234320F82230002010BC70470A7830F804
:1023BC00223013F4804F0CD030F822309BB223F42F
:1023CC00E04323F0700343F4404343F0800320F8D0
:1023DC0022300A7830F8223013F0400F0CD030F84D
:1023EC0022309BB223F4E04323F0700343F4004308
:1023FC0043F0C00320F822300A7830F822309BB228
:10240C0023F4E04323F0700343F4404343F0800390
:10241C0020F822300B7830F8232092B222F4E042DC
:10242C0022F0400248F28004224320F823200A784C
:10243C0030F822309BB223F4804323F07003234303
:10244C0020F82230AFE74B788BB90A7830F822307D
:10245C009BB223F4804323F0700383F4805343F442
:10246C00004343F0800320F82230002070470A78A4
:10247C0030F822309BB223F4E04323F0400383F086
:10248C00100343F4004343F0800320F82230ECE7C0
:10249C000B7B002B4BD14B7833B30A7830F82230BE
:1024AC0013F0400F0CD030F822309BB223F4E043F1
:1024BC0023F0700343F4004343F0C00320F82230B0
:1024CC00CB78012B33D00A7830F822309BB223F42E
:1024DC00E04323F0400383F0200343F4004343F034
:1024EC00800320F8223022E00A7830F8223013F4EE
:1024FC00804F0CD030F822309BB223F4E04323F011
:10250C00700343F4404343F0800320F822300A78F0
:10251C0030F822309BB223F4804323F0700383F411
:10252C00405343F4004343F0800320F82230002052
:10253C00704711B98023A0F84C3000207047002060
:10254C00704700207047B0F8440070470020704777
:10255C0001335B0800EB420202F5806263B110B4F8
:10256C000C78487844EA002422F8044B0231013BF1
:10257C00002BF5D110BC7047704770B54E78012E0A
:10258C0033D08A690B699A4240F2FC80D21A8A6174
:10259C000A7B002A40F01381B0F8502002440C78DA
:1025AC0002EB0412002B40F0F180B2F80C349BB219
:1025BC0023F4F8439BB2A2F80C34B2F80C3443F475
:1025CC000043A2F80C340A7830F822309BB223F482
:1025DC00804323F0700383F4405343F4004343F0EF
:1025EC00800320F82230002070BD8A690B699A4262
:1025FC0022D9D21A8A610C4605460A7B02B30A78A4
:10260C0030F8221011F0400F72D0002E40D1B0F8EB
:10261C005010014401EB02120BBBB2F80C1489B23E
:10262C0021F4F84189B2A2F80C14B2F80C1441F45C
:10263C000041A2F80C1433E000238B611346DAE757
:10264C009EB23346CA884969FFF782FFB5F850300D
:10265C002B44227803EB0213A3F8046437E03E2BDF
:10266C0009D8590813F0010F00D00131890289B241
:10267C00A2F80C1414E0590913F01F0F00D1013902
:10268C006FEAC1616FEA514189B2A2F80C1407E0FC
:10269C00B0F85010014401EB021299B2A2F80C14DC
:1026AC0062899BB261692846FFF752FF6378002B61
:1026BC0057D1227835F822309BB223F4E04323F033
:1026CC00700343F4004343F0C00325F82230227812
:1026DC0035F822309BB223F4E04323F0400383F01F
:1026EC00300343F4004343F0800325F822307AE7AB
:1026FC006EBBB0F85010014401EB021273B9B2F882
:10270C00041489B221F4F84189B2A2F80414B2F885
:10271C00041441F40041A2F8041420E03E2B09D823
:10272C00590813F0010F00D00131890289B2A2F8C7
:10273C00041414E0590913F01F0F00D101396FEA8A
:10274C00C1616FEA514189B2A2F8041407E0B0F8F4
:10275C005010014401EB021299B2A2F80414228920
:10276C009FE7012BB3D1227835F822309BB223F4AA
:10277C00E04323F0700343F4404343F0800325F817
:10278C002230A4E700238B61134601E73E2B09D8C6
:10279C005C0813F0010F00D00134A402A4B2A2F81B
:1027AC000C4410E75C0913F01F0F00D1013C6FEAD9
:1027BC00C4646FEA5444A4B2A2F80C4403E7A6B96B
:1027CC00B0F8502002440C7802EB041233BBB2F880
:1027DC000444A4B224F4F844A4B2A2F80444B2F819
:1027EC00044444F40044A2F804444A78002A47D133
:1027FC00B0F8502002440C7802EB04123BBBB2F848
:10280C000C349BB223F4F8439BB2A2F80C34B2F80C
:10281C000C3443F40043A2F80C34D4E63E2B09D814
:10282C005C0813F0010F00D00134A402A4B2A2F88A
:10283C000444DAE75C0913F01F0F00D1013C6FEA86
:10284C00C4646FEA5444A4B2A2F80444CDE73E2B0E
:10285C0009D85C0813F0010F00D00134A402A4B213
:10286C00A2F80C44AFE65C0913F01F0F00D1013C39
:10287C006FEAC4636FEA53439BB2A2F80C34A2E62E
:10288C00012A7FF4A0AEB0F8502002440C7802EB81
:10289C0004129BB2A2F80C3495E630B45D0800EB40
:1028AC00420202F5806207E032F8044BA4B20C70CD
:1028BC00240A4C700231013D002DF5D113F0010FAB
:1028CC0001D013880B7030BC704710B5D0F8B842EB
:1028DC00D0F8BC325BB194F80002FF2807D09B689B
:1028EC0094F8012221469847FF2384F800320020F7
:1028FC0010BD0000432303800048704708000020EF
:10290C0043230380004870474C000020432303807E
:10291C0000487047900000200A230380004870474D
:10292C00D400002038B50446D0F8B85201F0A4F910
:10293C00C5F80C02D4F8B8324BB1D4F8BC32DB6811
:10294C0005F50371D5F804029847002038BD022024
:10295C00FCE738B5D0F8B822D0F8C052EAB101EB98
:10296C008104A3000344DB693BB105EB4115AD6B5E
:10297C00B3FBF5F405FB14331BB10020C2F81402B1
:10298C0038BD01EB8102930003440024DC61234633
:10299C00224601F061F92046F2E70220F0E770B51B
:1029AC0082B005460C46D0F8B86200238DF807308B
:1029BC00ADF804300B7813F0600227D0202A56D1E2
:1029CC00CA883AB9D0F8BC329B680022487898473C
:1029DC0000204FE013F0800F0CD0D0F8BC329B6875
:1029EC00314660789847E2883146284600F0AEFDC3
:1029FC0000203FE04B7886F800328B7986F8013264
:102A0C00CA88314600F0B7FD002033E04B780A2B22
:102A1C0014D00B2B21D01BB100F077FA022029E047
:102A2C0090F89C32032B05D1022201A900F08EFDF7
:102A3C0000201FE000F069FA02201BE090F89C32A5
:102A4C00032B06D101220DF1070100F07FFD0020C0
:102A5C0010E000F05AFA02200CE090F89C32032BA4
:102A6C0001D1002006E000F050FA022002E000F054
:102A7C004CFA022002B070BD38B50446812101F039
:102A8C00B8F80025E5620121204601F0B2F8C4F83F
:102A9C006C518221204601F0ACF82564D4F8B83290
:102AAC004BB1D4F8BC325B689847D4F8B80201F04B
:102ABC00EDF8C4F8B852002038BD38B50446037C94
:102ACC00A3BB4FF400730222812101F087F801258A
:102ADC00E5624FF4007302222946204601F07EF88D
:102AEC00C4F86C51082303228221204601F076F8A9
:102AFC00012323644FF4077001F0C4F80546C4F8B1
:102B0C00B80268B3D4F8BC321B6898470023C5F8E8
:102B1C001432C5F81832237CC3B14023D5F80422F3
:102B2C000121204601F0A0F8002038BD40230222EC
:102B3C00812101F053F80125E56240230222294648
:102B4C00204601F04BF8C4F86C51CBE74FF40073FE
:102B5C00D5F804220121204601F086F80020E4E794
:102B6C000120E2E719B1C0F8BC1200207047022026
:102B7C007047D0F8B832C3F80812C3F810220020FE
:102B8C007047D0F8B832C3F8041200207047D0F860
:102B9C00B822A2B108B5D2F814320BB1012008BD8D
:102BAC000123C2F81432D2F810320363B2F8103297
:102BBC00D2F80822812101F04FF80020EFE7022023
:102BCC007047D0F8B8229AB108B5037C3BB14023CA
:102BDC00D2F80422012101F047F8002008BD4FF47F
:102BEC000073D2F80422012101F03EF80020F5E731
:102BFC000220704798B108B50346D0F8B40210B162
:102C0C000020C3F8B40209B1C3F8B012184601236E
:102C1C0080F89C32027000F097FF002008BD022063
:102C2C00704719B1C0F8B4120020704702207047E9
:102C3C0008B500F0CBFF002008BD08B5D0F8B432C1
:102C4C0033B11B68984708B9002008BD0220FCE787
:102C5C000220FAE708B5D0F8B4325B689847002038
:102C6C0008BD38B5044600F52A75284600F039F938
:102C7C000123C4F89432B4F8AE32C4F8983294F804
:102C8C00A81201F01F03012B0ED03BB1022B10D068
:102C9C0001F08001204600F0B4FF03E029462046F5
:102CAC0000F0CDFA002038BD2946204600F0FBFA92
:102CBC00F8E72946204600F026FBF3E738B5044632
:102CCC00A1BB1046D4F89432032B03D0052B24D08F
:102CDC00002037E0D4F86031D4F8642193420DD948
:102CEC009B1AC4F860319A4206D99AB20146204622
:102CFC0000F050FC002025E092B2F7E7D4F8B43293
:102D0C001B692BB194F89C22032A01D120469847C9
:102D1C00204600F047FC002014E00025C4F8945233
:102D2C002946204600F06DFF28460BE00A46D0F8F5
:102D3C00B4329B693BB190F89C12032905D1114622
:102D4C009847002038BD0220FCE70220FAE710B5B6
:102D5C000446002953D11046D4F89432022B0CD0DF
:102D6C00042B00D01BB98021204600F04AFF94F8B8
:102D7C00A032012B3FD000204DE0236A626A9342BF
:102D8C001DD8E169B1FBF2F302FB13132BB98A4294
:102D9C0003D8D4F8983299421FD3D4F8B432DB68F4
:102DAC002BB194F89C22032A01D12046984780210C
:102DBC00204600F026FF204600F0FFFBD7E79A1ACA
:102DCC00226292B20146204600F0CDFB00231A4647
:102DDC001946204600F048FFC9E70022114620465C
:102DEC0000F0C1FB0021C4F898120B460A4620469D
:102DFC0000F03AFFBBE7002084F8A0020BE00A4683
:102E0C00D0F8B4325B693BB190F89C12032905D120
:102E1C0011469847002010BD0220FCE70220FAE77B
:102E2C0070B5044640230022114600F0D7FE012560
:102E3C00C4F858514026C4F86461334600228021FE
:102E4C00204600F0CBFEA561666284F89C520023FC
:102E5C00C4F894326360C4F8A432D4F8B8322BB1FD
:102E6C00D4F8B4325B68002120469847002070BD2E
:102E7C0001740020704790F89C3280F89D32042336
:102E8C0080F89C320020704790F89C32042B01D0C3
:102E9C000020704790F89D3280F89C32F8E708B516
:102EAC0090F89C32032B01D0002008BDD0F8B4322E
:102EBC00DB69002BF8D09847F6E7002302E00133DA
:102ECC00DBB201300278002AF9D11846704708B5F8
:102EDC004B88012B00D008BDC0F8A43200F062FB77
:102EEC00F9E70B7803704B7843708B78CA7803EB57
:102EFC00022343800B794A7903EB022383808B797D
:102F0C00CA7903EB0223C380704710B504468021B5
:102F1C0000F077FE0021204600F073FE10BD30B5A6
:102F2C0083B005460C460023ADF806304A88130AD8
:102F3C00013B062B00F2A480DFE803F004182CA25E
:102F4C00A2869300D0F8B0321B680DF10601007C0C
:102F5C009847BDF806201AB1E388002B40F0948006
:102F6C00E388002B00F09A8003B030BD037C43B99A
:102F7C00D0F8B4329B6A0DF10600984702234370D7
:102F8C00E7E7D0F8B432DB6A0DF10600984702236C
:102F9C004370DEE7D2B2052A52D8DFE802F0031004
:102FAC001D2A3744D0F8B0325B6823B10DF106010D
:102FBC00007C9847CDE72146FFF7A7FFD4E7D0F870
:102FCC00B0329B6823B10DF10601007C9847C0E735
:102FDC002146FFF79AFFC7E7D0F8B032DB6823B180
:102FEC000DF10601007C9847B3E72146FFF78DFFF2
:102FFC00BAE7D0F8B0321B6923B10DF10601007CA1
:10300C009847A6E72146FFF780FFADE7D0F8B0322E
:10301C005B6923B10DF10601007C984799E72146C5
:10302C00FFF773FFA0E7D0F8B0329B6923B10DF125
:10303C000601007C98478CE72146FFF766FF93E773
:10304C002146FFF762FF8FE7037C33B9D0F8B43227
:10305C005B6B0DF1060098477BE72146FFF755FFA8
:10306C0082E7037C43B9D0F8B4321B6B0DF1060038
:10307C009847072343706CE72146FFF746FF73E739
:10308C002146FFF742FF6FE79A4228BF1A46ADF878
:10309C0006200146284600F059FA61E7284600F060
:1030AC0081FA61E738B504468B88F3B9CB88E3B96C
:1030BC004B887F2B19D803F07F0590F89C32032B9B
:1030CC000CD080F89E52294600F0BEFD204600F040
:1030DC0069FA35B1022384F89C3209E0FFF715FF39
:1030EC0006E0012384F89C3202E02046FFF70DFF36
:1030FC0038BD000038B504460D468978284B197048
:10310C0001290ED890F89C32022B0ED0032B21D023
:10311C002946FFF7FAFE224B19782046FFF79AFD55
:10312C0002E02946FFF7F1FE38BD81B1416003236F
:10313C0080F89C32FFF781FD022803D0204600F076
:10314C0031FAF1E729462046FFF7DFFEECE700F005
:10315C0029FAE9E789B1436899421DD0D9B2FFF742
:10316C0079FD0F4B197861602046FFF766FD022848
:10317C000DD0204600F016FAD6E7022380F89C32D8
:10318C004160FFF767FD204600F00CFACCE72946BA
:10319C002046FFF7BAFEC7E700F004FAC4E700BF09
:1031AC00FC01002008B5CB88012B0BD190F89C3288
:1031BC009BB1022B09D9032B0FD10122011D00F069
:1031CC00C5F901E0FFF7A1FE08BD0146002341F857
:1031DC00083F012200F0BAF9F6E7FFF796FEF3E795
:1031EC0008B590F89C32013B022B12D8CB88022BED
:1031FC000CD10123C360D0F8A4320BB10323C360FC
:10320C00022200F10C0100F0A1F908BDFFF77DFED0
:10321C00FBE7FFF77AFEF8E708B590F89C32013B24
:10322C00022B09D84B88012B00D008BD0023C0F815
:10323C00A43200F0B7F9F8E7FFF767FEF5E708B539
:10324C000B7803F06003202B05D0402B03D043B147
:10325C00FFF75BFE03E0D0F8B4329B689847002080
:10326C0008BD4B78092B1BD8DFE803F011171A1493
:10327C001A08051A0E0BFFF752FEF0E7FFF712FFC4
:10328C00EDE7FFF737FFEAE7FFF78CFFE7E7FFF71C
:10329C00A7FFE4E7FFF71BFEE1E7FFF7BDFFDEE763
:1032AC00FFF733FEDBE738B505460C460B7803F029
:1032BC006003202B06D0402B04D01BB1FFF725FE5A
:1032CC00002038BD95F89C32013B022B16D823798F
:1032DC00012B0ED8D5F8B4329B6821462846984766
:1032EC00E388002BECD10028EAD1284600F05AF9EB
:1032FC00E6E721462846FFF708FEE1E72146284687
:10330C00FFF703FEDCE738B504468A880B7803F038
:10331C006003202B08D0D0B2402B05D05BB12046E7
:10332C00FFF7F3FD002005E0D4F8B4329B6820468B
:10333C009847002038BD202B05D1D4F8B4329B68B7
:10334C0020469847F6E74B78012B32D0002B5ED005
:10335C00032B40F0D88094F89C32022B06D0032B20
:10336C0016D02046FFF7D1FD0020E3E708B18028F6
:10337C0004D12046FFF7C9FD0020DBE701462046BB
:10338C0000F03FFC8021204600F03BFC0020D1E700
:10339C004B8823B918B1802801D0CB8823B12046A3
:1033AC0000F000F90020C5E70146204600F029FC9A
:1033BC00F5E794F89C32022B06D0032B16D020464E
:1033CC00FFF7A3FD0020B5E708B1802804D1204603
:1033DC00FFF79BFD0020ADE70146204600F011FCF5
:1033EC008021204600F00DFC0020A3E74B88002B29
:1033FC0040F08E8010F07F0F04D1204600F0D2F800
:10340C00002097E70146204600F003FCF5E794F80E
:10341C009C32022B06D0032B2AD02046FFF775FDD9
:10342C00002087E708B1802813D112F0800F15D146
:10343C0000F07F0000EB8000830003F5A8712144AD
:10344C00043100250D600222204600F07FF828464A
:10345C0070E72046FFF759FD00206BE700F07F0076
:10346C0000EB8000830003F1100121440431E8E7F4
:10347C0052B2002A1FDB00F00F0303EB83039D0005
:10348C002544D5F8583123B3002A27DB00F07F02FE
:10349C0002EB8202930003F5A8752544043508B1AC
:1034AC00802825D100232B6002222946204600F0DB
:1034BC004DF800203EE700F00F0303EB83039D0063
:1034CC002544AB69002BDFD12046FFF71EFD002001
:1034DC0030E72046FFF719FD00202BE700F07F02B4
:1034EC0002EB8202930003F1100525440435D6E764
:1034FC000146204600F095FB10B101232B60D3E769
:10350C0000232B60D0E72046FFF7FFFC002011E7DB
:10351C0000200FE7C8B170B50D4616460446FFF7FC
:10352C00CCFC013040003080287003236B700223E8
:10353C0007E001345A1CD2B2E9540233DBB2002149
:10354C00A95421780029F4D170BD704710B51346E9
:10355C000222C0F89422C36103620A46002100F0E3
:10356C007BFB002010BD08B513460A46002100F075
:10357C0073FB002008BD10B513460322C0F894223B
:10358C00C0F85C31C0F860310A46002100F06CFBD9
:10359C00002010BD08B513460A46002100F064FB5C
:1035AC00002008BD08B50423C0F8943200231A4645
:1035BC00194600F051FB002008BD08B50523C0F8E2
:1035CC00943200231A46194600F04EFB002008BD29
:1035DC002DE9F04188B000240494059406940794D6
:1035EC00244B9A6942F010029A619A6902F0100217
:1035FC000092009A9A6942F020029A619A6902F04C
:10360C0020020192019A9A6942F004029A619A6925
:10361C0002F004020292029A9A6942F008029A613C
:10362C009B6903F008030393039BDFF8508001228E
:10363C004FF400514046FCF735FF0F4E2246022155
:10364C003046FCF72FFF4FF40053049301270597E6
:10365C0006940225079504A94046FCF737FE04950D
:10366C0005970694079504A93046FCF72FFE08B081
:10367C00BDE8F0810010024000080140001001403C
:10368C0008B50948094B0360094B4360002383606C
:10369C00C3604FF48042026143618361C361036282
:1036AC00FDF710F908BD00BF3404002000540040A1
:1036BC00A086010010B50B461446012809D002283B
:1036CC0015D000F09DFB092303604FF0FF3420461A
:1036DC0010BD1146184600F0AFF9C0B20028F6D064
:1036EC0000F08EFB052303604FF0FF34EFE711462B
:1036FC00184600F0A1F9C0B20028E8D000F080FB19
:10370C00052303604FF0FF34E1E770B594B000245B
:10371C000C940D940F9410940594069407940894AB
:10372C000994019402940394049401250A954FF48E
:10373C0080330B930E950226119612934FF480133F
:10374C0013930AA8FEF716F80F2305930696079411
:10375C004FF4806308930994294605A8FEF750FAA4
:10376C00102301934FF48003049301A8FEF712FB7E
:10377C00FEF708FA14B070BD70B584B0FCF704FD08
:10378C00FFF7C3FFFFF724FFFFF77AFF00F004F900
:10379C0020238DF8083047238DF809304FF4FA6355
:1037AC000093022302AA32211448FDF75BF904AC02
:1037BC00A82304F8083D114D4FF47A7600960123A6
:1037CC00224632212846FDF74DF900960623224663
:1037DC0033212846FDF700FA02210948FCF768FE60
:1037EC009DF90D309DF90B209DF90910054800F04D
:1037FC0039FBC820FCF7ECFCD9E700BF34040020EF
:10380C0000080140904C00087047000082B00E4B3D
:10381C009A6942F001029A619A6902F001020092DF
:10382C00009ADA6942F08052DA61DB6903F0805366
:10383C000193019B054A536823F0E06343F0007346
:10384C00536002B0704700BF0010024000000140FE
:10385C0010B586B00023029303930493059302687A
:10386C00114B9A4201D006B010BD104CA36943F025
:10387C000803A361A36903F008030093009BC02312
:10388C000293122303930323059302A90848FCF720
:10389C001DFDE36943F40013E361E36903F40013D2
:1038AC000193019BDFE700BF005400400010024071
:1038BC00000C01407047FEE7FEE7FEE7FEE77047AD
:1038CC007047704708B5FCF771FC08BD08B5024895
:1038DC00FDF7FBFD08BD00BF1C0F002070B50D46A9
:1038EC001646002404E0AFF3008028700134013543
:1038FC00B442F8DB304670BD08B503460B4A12687B
:10390C0042B10A4A106803446A46934206D8074AF1
:10391C00136008BD054A06491160F2E700F070FA21
:10392C000C2303604FF0FF30F3E700BF00020020D0
:10393C00901300204FF0FF3070474FF400534B6052
:10394C000020704701207047002070470F4B1A6809
:10395C0042F001021A6059680D4A0A405A601A680E
:10396C0022F0847222F480321A601A6822F48022C7
:10397C001A605A6822F4FE025A604FF41F029A60D1
:10398C00044B4FF000629A60704700BF0010024079
:10399C000000FFF800ED00E008B500220F491048C8
:1039AC00FFF728F970B90F490D48FFF73AF960B9DC
:1039BC000D490B48FFF7D6F850B90948FFF738F90D
:1039CC0048B908BDFFF720FFEDE7FFF71DFFEFE754
:1039DC00FFF71AFFF1E7FFF717FFF2E7600100208E
:1039EC0088040020E00000201C010020002070470B
:1039FC000020704710B5054C01462046FFF7C1F872
:103A0C002046FFF7DEF8002010BD00BF8804002020
:103A1C0010B5064C002206492046FFF7AAF80549C6
:103A2C002046FFF7AEF8002010BD00BF8804002030
:103A3C00340B00204C070020094BD3F8B832D3F8D4
:103A4C0014320BB10120704710B50A460146044CE4
:103A5C002046FFF78EF82046FFF799F810BD00BFFF
:103A6C008804002018B1022803D0022070470020DF
:103A7C00704701207047000002680E4B9A4200D03C
:103A8C00704700B583B003F5DA33DA6942F400020B
:103A9C00DA61DB6903F400030193019B00221146F8
:103AAC001420FCF7BBFB1420FCF7ECFB03B05DF817
:103ABC0004FB00BF005C004008B500F50C71D0F8A9
:103ACC006802FFF7CEF808BD08B500EB4113D3F838
:103ADC003C21D0F86802FFF7F1F808BD08B500EBFF
:103AEC004113DA6BD0F86802FFF731F908BD08B55D
:103AFC00D0F86802FFF7D3F908BD10B50446836807
:103B0C00022B01D0FFF780FE0121D4F86802FFF7E9
:103B1C00AFF9D4F86802FFF783F910BD10B504466D
:103B2C00D0F86802FFF7A7F9A36923B1024A136919
:103B3C0043F00603136110BD00ED00E008B5D0F8AA
:103B4C006802FFF7A1F908BD10B504461D48C0F87E
:103B5C006842C4F8C0021C4B036008234360022374
:103B6C00836000238361C3610362FDF7A7F930BB57
:103B7C00182300221146D4F8C002FDF7CDFD5823BE
:103B8C0000228021D4F8C002FDF7C6FDC02300221C
:103B9C008121D4F8C002FDF7BFFD4FF488730022D9
:103BAC000121D4F8C002FDF7B7FD4FF48073002259
:103BBC008221D4F8C002FDF7AFFD002010BDFFF745
:103BCC0023FED5E71C0F0020005C004008B5D0F8A0
:103BDC00C002FDF7EDF9FFF745FF08BD10B51C4617
:103BEC0013462246D0F8C002FDF70DFAFFF73AFF54
:103BFC0010BD08B5D0F8C002FDF73DFAFFF732FF53
:103C0C0008BD08B5D0F8C002FDF718FDFFF72AFF74
:103C1C0008BD08B5D0F8C002FDF747FDFFF722FF3D
:103C2C0008BDD0F8C03211F0800F06D101F07F0131
:103C3C0003EB411191F82A01704701F07F0103EB6E
:103C4C00411191F82A00704708B5D0F8C002FDF771
:103C5C00C6F9FFF707FF08BD08B5D0F8C002FDF79D
:103C6C005EFAFFF7FFFE08BD08B5D0F8C002FDF7FD
:103C7C0030FAFFF7F7FE08BD08B5D0F8C002FDF723
:103C8C0047FA08BD0048704708020020704770478B
:103C9C0012230B80004870472C01002004230B805A
:103CAC0000487047400100200023934216D230B4E4
:103CBC000BE0373401F8134000015C00013400259F
:103CCC000D550133DBB2934206D2040F092CF0D808
:103CDC00303401F81340EFE730BC704770470000F8
:103CEC0038B50B4B186804331C6804331B68C018B8
:103CFC0000D138BD074D082205F11A01FFF7D4FF9A
:103D0C00042205F12A012046FFF7CEFFF1E700BFA0
:103D1C00E8F7FF1F2C01002008B51A230B80FFF7D2
:103D2C00DFFF014808BD00BF4401002008B50A466A
:103D3C0028B105490548FFF7EDFB034808BD0249CA
:103D4C000248FFF7E7FBF8E788110020AC4C0008AD
:103D5C0010B5044C0A4621460348FFF7DBFB20460E
:103D6C0010BD00BF88110020C44C000808B50A46DD
:103D7C0028B105490548FFF7CDFB034808BD0249AA
:103D8C000248FFF7C7FBF8E788110020D84C000861
:103D9C0008B50A4628B105490548FFF7BBFB03489F
:103DAC0008BD02490248FFF7B5FBF8E7881100206F
:103DBC00E44C0008002103E00B4B5B5843500431EA
:103DCC000A480B4B42189A42F6D30A4A02E00023E7
:103DDC0042F8043B084B9A42F9D3FFF7B7FD00F0C9
:103DEC0015F8FFF7C9FC7047944D0008000000203F
:103DFC00E0010020E00100208C130020FEE7000011
:103E0C00014B1868704700BF7C01002070B500257D
:103E1C000C4E0D4CA41BA410A54209D100F010FFB0
:103E2C0000250A4E0A4CA41BA410A54205D170BD56
:103E3C0056F8253098470135EEE756F82530984767
:103E4C000135F2E78C4D00088C4D00088C4D0008B4
:103E5C00904D000803460244934200D1704703F88A
:103E6C00011BF9E70FB40A4B13B51C6824B1A36905
:103E7C0013B9204600F04EF805AB049AA168204611
:103E8C00019300F053F902B0BDE8104004B0704744
:103E9C007C010020002310B50446C0E90033836088
:103EAC0081814366C281C0E90433836119460822CB
:103EBC005C30FFF7CFFF054B24626362044BA362B7
:103ECC00044BE362044B236310BD00BF954600080E
:103EDC00B7460008EF46000813470008014900F0F8
:103EEC0085B800BFED49000870B568254A1E5543DA
:103EFC000E4605F1740100F097F8044640B100211C
:103F0C00C0E900160C30A06005F16802FFF7A2FFB3
:103F1C00204670BD836910B5044633BBC0E912332B
:103F2C000365124B124A1B688262984204BF01233C
:103F3C00836100F01FF86060204600F01BF8A06061
:103F4C00204600F017F80022E06004216068FFF7BB
:103F5C00A1FF01220921A068FFF79CFF0222122178
:103F6C00E068FFF797FF0123A36110BDF44C000834
:103F7C00E93E0008F8B51B4B07461E68B36913B938
:103F8C003046FFF7C7FF4836D6E90134013B03D56D
:103F9C00336833B13668F7E7B4F90C506DB1683457
:103FAC00F4E704213846FFF79FFF30600028F1D179
:103FBC000C2304463B602046F8BD0B4B6566C4E9F8
:103FCC000055A560C4E90335C4E905550822294606
:103FDC0004F15C00FFF73EFFC4E90D55C4E912552E
:103FEC00E9E700BFF44C00080100FFFF2DE9F8439E
:103FFC0080468946002600F1480414B93046BDE8D5
:10400C00F883D4E90175013F01D52468F5E7AB8944
:10401C00012B07D9B5F90E30013303D029464046A0
:10402C00C84706436835EEE770B5CD1C25F003058F
:10403C0008350C2D38BF0C25002D064601DBA94296
:10404C0003D90C233360002070BD00F077FD214AAA
:10405C001468214691B9204C23681BB9304600F0F6
:10406C0003FB20602946304600F0FEFA431C24D1A5
:10407C000C233046336000F062FDE4E70B685B1BF9
:10408C0018D40B2B0FD90B60CC18CD50304600F048
:10409C0056FD04F10B00231D20F00700C31AD3D0EA
:1040AC005A42E250D0E74B688C4216BF63601360F3
:1040BC000C46EBE70C464968CCE7C41C24F003041F
:1040CC00A04205D0211A304600F0CEFA0130CFD0F4
:1040DC002560DBE7280400202C040020936810B432
:1040EC00013B002B936007DA9469A34201DB0A2998
:1040FC0002D110BC00F00CBB1368581C1060197076
:10410C00084610BC7047F8B506460F461446D5183D
:10411C00AC4201D1002007E03A4614F8011B3046AE
:10412C00FFF7DCFF431CF3D1F8BD00002DE9F04F85
:10413C000C469DB017461D46064618B183690BB94F
:10414C00FFF7E8FE7C4B9C4258D17468A389180792
:10415C005ED52369002B5BD00023099320238DF8B7
:10416C00293030234FF0010B8DF82A300395B846D7
:10417C00454615F8013B0BB1252B54D1B8EB070A7A
:10418C000BD053463A4621463046FFF7BCFF013070
:10419C0000F0C280099B5344099398F80030002B1F
:1041AC0000F0BA8000234FF0FF32CDE905230493D1
:1041BC0007938DF853301A93A846052218F8011B63
:1041CC005E4800F0ADFC049B78BBD90644BF2022AE
:1041DC008DF853201A0744BF2B228DF853202A78D0
:1041EC002A2A2AD0A84600200A25079A414611F807
:1041FC00013B303B092B69D960B324E0504B9C4206
:10420C0001D1B468A2E74F4B9C4208BFF4689DE70C
:10421C002146304600F0E0FA00289DD04FF0FF30E8
:10422C001DB0BDE8F08FA846A2E7444A4546801A67
:10423C000BFA00F018430490BEE7039A111D1268A4
:10424C000391002A01DB079204E0524243F002037F
:10425C000792049398F800302E2B0ED198F8013069
:10426C002A2B38D1039B08F102081A1D1B680392F4
:10427C00002BB8BF4FF0FF330593334D032298F852
:10428C000010284600F04CFC40B14023401B03FAC0
:10429C0000F0049B08F101080343049398F8001004
:1042AC0006222A4808F101078DF8281000F038FC86
:1042BC00002837D0264B1BBB039B073323F0070387
:1042CC0008330393099B4B44099350E705FB0232D7
:1042DC00012088468AE700230A25194608F10108BF
:1042EC000593404610F8012B303A092A03D9002BCC
:1042FC00C3D00591C1E705FB012101238046F0E7FE
:10430C0003AB00932246134B04A93046AFF3008055
:10431C00B0F1FF3F8146D5D1A3895B063FF57EAF57
:10432C0009987DE703AB009322460A4B04A930465B
:10433C0000F088F8ECE700BF184D0008584D000855
:10434C00384D0008F84C00085E4D0008624D00081E
:10435C0000000000134100082DE9F04791461F466C
:10436C008A680B6906469342B8BF1346C9F80030F9
:10437C0091F843200C46DDF8208012B10133C9F8C6
:10438C0000302368990642BFD9F800300233C9F8CF
:10439C000030256815F0060507D104F1190AE36809
:1043AC00D9F800209B1AAB4229DC94F843302268E0
:1043BC00003318BF012392062ED404F14302394670
:1043CC003046C047013021D02368E56803F006036E
:1043DC00042B18BF0025D9F800204FF0000908BFA6
:1043EC00AD1AA368226908BF25EAE5759342C4BFDC
:1043FC009B1AED181A344D451AD1002008E0012300
:10440C00524639463046C047013003D14FF0FF3099
:10441C00BDE8F0870135C2E73020E11881F8430090
:10442C005A1C94F845102244023382F84310C4E716
:10443C000123224639463046C0470130E6D009F107
:10444C000109D8E72DE9F04301F1430C0C46097E34
:10445C0085B06E291746064698460C9A00F0B38034
:10446C0022D8632936D00AD8002900F0B9805829FF
:10447C0000F0838004F1420584F8421032E0642994
:10448C0001D06929F6D120681368050603F10401EF
:10449C002AD51B681160002B03DA2D225B4284F8AD
:1044AC0043206F480A2239E0732900F09D8008D818
:1044BC006F2920D07029DDD1236843F020032360BD
:1044CC0003E0752917D07829D4D17823654884F86E
:1044DC00453055E0136804F14205191D1B68116045
:1044EC0084F8423001238CE01B6810F0400F1160FF
:1044FC0018BF1BB2CFE713682568181D106028067B
:10450C0001D51B6802E06806FBD51B886F2914BF18
:10451C000A2208225248002184F843106568002DB5
:10452C00A560C0F29580216821F004012160002B68
:10453C003DD1002D40F08E806546082A0BD12368B2
:10454C00DB0708D5236962689A42DEBF302305F881
:10455C00013C05F1FF35ACEB05032361CDF8008080
:10456C003B4603AA21463046FFF7F6FE01304DD1FB
:10457C004FF0FF3005B0BDE8F083394884F84510A2
:10458C00136821681D1D1B6815600A060BD5CA0728
:10459C0044BF41F0200121601BB9226822F02002A7
:1045AC0022601022B7E74D0648BF9BB2EFE7654685
:1045BC00B3FBF2F102FB1133C35C05F8013D0B4672
:1045CC000029F5D1B9E713682568181D61691060D9
:1045DC0028061B6801D5196002E06A06FBD5198014
:1045EC00002365462361B9E71368191D11601D6826
:1045FC0062680021284600F093FA08B1401B606005
:10460C0063682361002384F84330A7E723692A46B3
:10461C0039463046C0470130AAD023689B0713D4D3
:10462C00E068039B9842B8BF1846A3E701234A46AB
:10463C0039463046C04701309AD00135E368039AB9
:10464C009B1AAB42F2DCEBE7002504F11909F5E704
:10465C00002BACD1037804F1420584F842306CE7AE
:10466C00694D00087A4D000838B50023054C054605
:10467C0008462360FFF740F9431C02D1236803B1BD
:10468C002B6038BD8813002010B50C46B1F90E1004
:10469C0000F0A2FA0028ABBF636DA3891B1823F4AA
:1046AC008053ACBF6365A38110BD2DE9F0411F465B
:1046BC008B890546DB050C46164605D502230022E0
:1046CC00B1F90E1000F0B6F9A389324623F48053E9
:1046DC00A381B4F90E103B462846BDE8F04100F02A
:1046EC0069B810B50C46B1F90E1000F0A3F9431CD3
:1046FC00A38915BF606523F4805343F48053A381D1
:10470C0018BFA38110BDB1F90E1000F0D3B8000092
:10471C00F8B50E461446054618B183690BB9FFF778
:10472C00F9FB214B9C422AD16C68A369A360A38935
:10473C001A072ED5236963B323692068F6B2C01A11
:10474C0063693746834204DC2146284600F048F969
:10475C0028BBA3680130013BA36023685A1C22606C
:10476C001E706369834204D0A389DB0719D50A2E16
:10477C0017D12146284600F033F990B10FE00B4BCE
:10478C009C4201D1AC68D0E7094B9C4208BFEC6855
:10479C00CBE72146284600F01FF80028CCD04FF07C
:1047AC00FF373846F8BD00BF184D0008384D0008DB
:1047BC00F84C000838B50546084611460022054C51
:1047CC0022601A46FEF776FF431C02D1236803B120
:1047DC002B6038BD88130020324B70B51D6806461F
:1047EC000C4625B1AB6913B92846FFF793FB2E4B4A
:1047FC009C420FD16C68B4F90C309AB215072CD4CA
:10480C00D00611D40922326043F04003A3814FF04B
:10481C00FF303EE0254B9C4201D1AC68EBE7244BCA
:10482C009C4208BFEC68E6E7510712D5616B41B1B9
:10483C0004F14403994202D0304600F081F9002380
:10484C006363A38923F02403A3810023636023699A
:10485C002360A38943F00803A38123694BB9A3897F
:10486C0003F42073B3F5007F03D02146304600F0EB
:10487C0017F9A28912F001030CD00023A36063691D
:10488C005B42A361236953B9B4F90C3013F0800077
:10489C00BAD170BD920758BF6369A360F2E70020DC
:1048AC00F7E700BF7C010020184D0008384D0008C8
:1048BC00F84C000838B50023054C05460846236023
:1048CC00FFF738F8431C02D1236803B12B6038BDC5
:1048DC00881300208A892DE9F041054610070C4603
:1048EC0058D44B68002B05DC0B6C002B02DC002031
:1048FC00BDE8F081E66A002EF9D0002312F4805254
:10490C002F68216A2B6032D0606DA3895A0705D5B8
:10491C006368C01A636B0BB1236CC01A0023024688
:10492C00E66A216A2846B047431CA38906D1296848
:10493C001D2948D8294ACA40D60744D500226260AE
:10494C002269D904226004D5421C01D12B6803B919
:10495C006065616B2F600029C9D004F14403994252
:10496C0002D0284600F0ECF800206063C0E7012379
:10497C002846B047411CC8D12B68002BC5D01D2B35
:10498C0001D0162B01D12F60B1E7A38943F040036E
:10499C00A381ADE70F69002FA9D0930718BF00239F
:1049AC000E6808BF4B69A6EB07080F608B60B8F167
:1049BC00000F9CDD43463A46216A2846A66AB0475A
:1049CC00002806DCA38943F04003A3814FF0FF309D
:1049DC008EE70744A8EB0008E9E700BF0100402080
:1049EC0038B50B6905460C46DBB118B183690BB9B8
:1049FC00FFF790FA0C4B9C4209D16C68B4F90C305F
:104A0C007BB121462846BDE83840FFF763BF074B12
:104A1C009C4201D1AC68F1E7054B9C4208BFEC68A5
:104A2C00ECE7002038BD00BF184D0008384D0008D9
:104A3C00F84C000838B50546084611460022054CCE
:104A4C0022601A46FEF780FF431C02D1236803B193
:104A5C002B6038BD8813002070B50E46B1F90E10CE
:104A6C0096B0002914461D4607DA00232B60B38943
:104A7C001A0610D44FF480630EE06A4600F0BEF8BC
:104A8C000028F2DB019A02F47042A2F500535A425C
:104A9C005A412A60EEE740230020236016B070BD17
:104AAC008B8973B59D0706460C4607D504F1470361
:104ABC00236023610123636102B070BD01AB6A46C0
:104ACC00FFF7CAFF009905463046FFF7ADFA48B923
:104ADC00B4F90C309A05EFD423F0030343F002032E
:104AEC00A381E3E70D4BB362A389206043F08003FD
:104AFC00A381009B20616361019B5BB1B4F90E1033
:104B0C00304600F08DF828B1A38923F0030343F05D
:104B1C000103A381A3891D43A581CDE7E93E0008CC
:104B2C0010B5C9B202449042034601D1002303E000
:104B3C001C7801308C42F6D1184610BD7047704776
:104B4C0038B50546002943D051F8043C0C1F002B06
:104B5C00B8BFE418FFF7F2FF1E4A1368104633B9CA
:104B6C00636014602846BDE83840FFF7E8BFA342F5
:104B7C000BD921686218934201BF1A685B685218FE
:104B8C00226063600460EDE713465A680AB1A242E2
:104B9C00FAD919685818A0420BD12068014458184A
:104BAC0082421960DED110685268014419605A6063
:104BBC00D8E702D90C232B60D4E7206821188A424D
:104BCC0001BF116852680918216062605C60C9E716
:104BDC0038BD00BF2804002038B5054608461146EC
:104BEC000022054C22601A46FEF778FE431C02D1C7
:104BFC00236803B12B6038BD8813002038B500231F
:104C0C00064C0546084611462360FEF796FE431CEB
:104C1C0002D1236803B12B6038BD00BF881300207C
:104C2C0038B50023054C054608462360FEF78AFE7E
:104C3C00431C02D1236803B12B6038BD88130020BC
:104C4C00F8B500BFF8BC08BC9E467047F8B500BF6D
:084C5C00F8BC08BC9E4670473D
:104C640002030405060708090A0B0C0D0E0F1010A9
:104C74000102000000000000000000000102030423
:104C8400060708090000000001020304783A202501
:104C940064206720793A2025642067207A3A202509
:104CA4006420670D0A00000053544D3332205669C6
:104CB400727475616C20436F6D506F7274000000E4
:104CC40053544D6963726F656C656374726F6E697A
:104CD4006373000043444320436F6E6669670000BA
:104CE40043444320496E7465726661636500000045
:104CF400800100200000000000000000000000000F
:104D0400000000000000000000000000000000009F
:104D1400000000000000000000000000000000008F
:104D2400000000000000000000000000000000007F
:104D3400000000000000000000000000000000006F
:104D4400000000000000000000000000000000005F
:104D540000000000232D302B2000686C4C00656699
:104D640067454647003031323334353637383941B8
:104D740042434445460030313233343536373839CE
:084D84006162636465660000D2
:044D8C0031010008E9
:044D90000D01000809
:104D9400010000001000000009024300020100C0ED
:104DA400320904000001020201000524001001057B
:104DB40024010001042402020524060001070582DF
:104DC4000308001009040100020A0000000705019D
:104DD4000240000007058102400000000902430070
:104DE400020100C03209040000010202010005248E
:104DF4000010010524010001042402020524060018
:104E0400010705820308001009040100020A0000DA
:104E140000070501020002000705810200020000EC
:104E240009074300020104C0320904000001020220
:104E340001000524001001052401000104240202DC
:104E44000524060001070582030800100904010077
:104E5400020A000000070501024000000705810264
:104E6400400000000A0600020000004001000000AB
:104E7400C72A0008852A0008AB29000800000000A2
:104E8400D72800085F290008312900080000000025
:104E940000000000000000000D290008012900089E
:104EA40019290008252900080024F4001D3A0008E7
:104EB400F9390008FD390008013A0008120100021E
:104EC4000202004083044057000201020301000073
:104ED400040309041A03000000000000000000009D
:104EE40000000000000000000000000000000000BE
:104EF4009D3C0008A93C00085D3D0008393D0008C0
:104F0400253D0008793D00089D3D000880010020F2
:104F140000000000184D0008384D0008F84C000847
:104F2400000000000000000000000000000000007D
:104F3400000000000000000000000000000000006D
:104F4400000000000000000000000000000000005D
:104F5400000000000000000000000000000000004D
:104F6400000000000000000000000000000000003D
:0400000508003DC1F1
:00000001FF
