:020000040800F2
:100000000000052029270008512600085326000873
:100010005526000857260008592600080000000051
:100020000000000000000000000000005B26000847
:100030005D260008000000005F2600086126000819
:100040007927000879270008792700087927000810
:100050007927000879270008792700087927000800
:1000600079270008792700087927000879270008F0
:1000700079270008792700087927000879270008E0
:1000800079270008792700087927000879270008D0
:1000900079270008792700087927000879270008C0
:1000A00079270008792700087927000879270008B0
:1000B00079270008792700087927000879270008A0
:1000C0007927000879270008792700087927000890
:1000D0007927000879270008792700087927000880
:1000E0007927000879270008792700087927000870
:1000F0007927000879270008792700087927000860
:10010000792700087927000879270008792700084F
:10011000792700087927000879270008792700083F
:10012000792700087927000879270008792700082F
:10013000792700087927000879270008792700081F
:10014000792700087927000879270008792700080F
:1001500079270008792700087927000879270008FF
:1001600079270008792700087927000879270008EF
:100170007927000879270008792700080000000087
:1001800079270008792700087927000879270008CF
:1001900079270008792700087927000879270008BF
:1001A00079270008792700087927000879270008AF
:1001B000792700087927000879270008792700089F
:0801C0007927000879270008E7
:1001D00010B5054C237833B9044B13B10448AFF381
:1001E00000800123237010BD70000020000000007B
:1001F000A835000808B5034B1BB103490348AFF30A
:10020000008008BD0000000074000020A835000830
:1002100053B94AB9002908BF00281CBF4FF0FF316D
:100220004FF0FF3000F072B9ADF1080C6DE904CE6B
:1002300000F006F8DDF804E0DDE9022304B07047C1
:100240002DE9F047089E04468846002B4BD18A4290
:10025000154667D9B2FA82F24AB1C2F1200701FA13
:1002600002F320FA07F7954047EA030894404FEA63
:10027000154E230CB8FBFEF71FFA85FC0EFB178802
:1002800043EA084307FB0CF1994209D9EB1807F13F
:10029000FF3080F01B81994240F21881023F2B44CD
:1002A0005B1AA4B2B3FBFEF00EFB103344EA034426
:1002B00000FB0CFCA44509D92C1900F1FF3380F098
:1002C0000781A44540F2048102382C4440EA0740EB
:1002D000A4EB0C0400271EB1D4400023C6E9004360
:1002E0003946BDE8F0878B4209D9002E00F0EB803B
:1002F0000027C6E9000138463946BDE8F087B3FA61
:1003000083F7002F47D18B4202D3824200F2FA805A
:10031000841A61EB030301209846002EE0D0C6E961
:100320000048DDE702B9FFDEB2FA82F2002A40F0AF
:100330008F80491B4FEA154E1FFA85F80127B1FB44
:10034000FEFC230C0EFB1C1143EA014308FB0CF1DD
:10035000994207D9EB180CF1FF3002D2994200F212
:10036000CD808446591AA3B2B1FBFEF00EFB1014E7
:1003700043EA044408FB00F8A04507D92C1900F112
:10038000FF3302D2A04500F2B6801846A4EB080461
:1003900040EA0C409FE7C7F1200CBB4022FA0CFE5C
:1003A0004EEA030E01FA07F420FA0CF521FA0CF3D9
:1003B0004FEA1E482543B3FBF8F92C0C08FB193310
:1003C0001FFA8EFA44EA034309FB0AF49C4202FA3C
:1003D00007F200FA07F10BD91EEB030309F1FF3016
:1003E00080F087809C4240F28480A9F10209734426
:1003F0001B1BADB2B3FBF8F008FB103345EA034416
:1004000000FB0AFAA24508D91EEB040400F1FF33F1
:100410006BD2A24569D90238744440EA0940A0FB76
:100420000289A4EB0A044C45C2464B4654D351D032
:10043000002E69D0B1EB0A0564EB030404FA0CFC4E
:10044000FD40FC404CEA0505C6E90054002747E79B
:10045000C2F1200320FA03F7954001FA02F021FAD5
:1004600003F34FEA154E3843010CB3FBFEF71FFAB6
:1004700085F80EFB173341EA034107FB08F38B4273
:1004800004FA02F407D9691807F1FF3C2FD28B4216
:100490002DD9023F2944CB1A81B2B3FBFEF00EFBEB
:1004A000103341EA034100FB08F38B4207D9691876
:1004B00000F1FF3C17D28B4215D902382944C91AE2
:1004C00040EA07473BE73746304609E70746E7E695
:1004D0001846FBE64145ABD2B8EB020A69EB0E02C7
:1004E00001381346A4E76046E9E7184695E76746F2
:1004F000D1E781467CE702382C4447E7ACF1020C97
:100500002B442FE7384608E73746E9E6704700BF37
:1005100001F0FF01102A2BDB10F0070F08D010F8B4
:10052000013B013A8B422DD010F0070F42B3F6D1B8
:10053000F0B441EA012141EA014122F007047FF0D1
:1005400000070023F0E80256083C85EA010586EA28
:10055000010685FA47F5A3FA87F586FA47F6A5FA64
:1005600087F68EB9EED1F0BC01F0FF0102F0070270
:1005700032B110F8013B013A83EA010313B1F8D11B
:100580000020704701387047002D06BF35460338FC
:10059000073815F0010F07D1013015F4807F02BF35
:1005A000013015F4C03F0130F0BC0138704700BF86
:1005B00010B504460E4B18784FF47A73B3FBF0F382
:1005C0000C4A1068B0FBF3F000F08CF868B90F2CFF
:1005D00001D901200AE0002221464FF0FF3000F04F
:1005E0004FF8034B5C60002000E0012010BD00BF0D
:1005F000000000200800002008B5032000F02EF8BD
:100600000020FFF7D5FF01F087FF002008BD0000A4
:10061000034A1168034B1B780B441360704700BFFB
:100620009C00002000000020014B1868704700BFAC
:100630009C00002038B50446FFF7F6FF0546B4F1EC
:10064000FF3F02D0044B1B781C44FFF7EDFF401B1B
:10065000A042FAD338BD00BF000000200649CB6895
:1006600023F4E0631B041B0C000200F4E06003436E
:10067000024A1A43CA60704700ED00E00000FA0524
:1006800030B4154BDB68C3F30223C3F10704042C19
:1006900028BF04241D1D062D14D9033B4FF0FF3540
:1006A00005FA04F421EA0401994005FA03F322EA69
:1006B00003031943002807DB0901C9B2074B19548A
:1006C00030BC70470023E9E700F00F000901C9B210
:1006D000034B1954F4E700BF00ED00E000E400E034
:1006E00014ED00E00138B0F1807F0AD2064B58606B
:1006F000064AF02182F823100020986007221A6031
:1007000070470120704700BF10E000E000ED00E0FE
:1007100000230F2B00F2E280F0B482B039E009220E
:1007200000E00022B2403A4302346D4E46F82420E5
:100730006C4A1468EA4302EA04064F6817F4803FE3
:1007400001D045EA0406674C2660646802EA0406A4
:100750004F6817F4003F01D045EA0406614C66601B
:10076000A46802EA04064F6817F4801F01D045EA26
:1007700004065C4CA660E46822404E6816F4001F34
:1007800001D045EA0402574CE26001330F2B00F21E
:10079000A28001229A400C6804EA0205AA42F4D120
:1007A0004C68122C18BF022C10D1DE08083650F805
:1007B00026C003F00704A7000F24BC402CEA040C59
:1007C0000C69BC4044EA0C0440F8264004685F0011
:1007D0000326BE40F64306EA040C4C6804F003040A
:1007E000BC4044EA0C0404604C6804F1FF3C112C4A
:1007F00018BFBCF1010F01D9122C11D1846806EA8F
:10080000040CCC68BC4044EA0C048460446824EACC
:10081000020C4C68C4F300129A4042EA0C02426097
:10082000C26816408A68BA403243C2604A6812F011
:10083000805FAAD02C4A546C44F480445464526CB7
:1008400002F480420192019A9C08A61C244A52F8A4
:10085000267003F0030296000F22B24027EA020737
:10086000224A90423FF45DAF02F58062904222D06E
:1008700002F58062904220D002F5806290421ED044
:1008800002F5806290421CD002F5806290421AD03C
:1008900002F58062904218D002F58062904216D034
:1008A00002F58062904214D002F5806290423FF4DB
:1008B00036AF0A2236E7012234E7022232E703226A
:1008C00030E704222EE705222CE706222AE707223A
:1008D00028E7082226E702B0F0BC7047704700BF47
:1008E00000380140003C0140003802400000024056
:1008F00012B909048161704781617047436931EA27
:10090000030301D081617047090481617047036866
:100910009A6912F0020F01D000229A6203689A6964
:1009200012F0010F03D19A6942F001029A617047F7
:1009300070B4039E05686868740D04F4806444F024
:100940007F7444F4583444F47F7444F0030420EA80
:100950000400C1F3090141EA024119433143014353
:10096000696070BC704770B504460D461646036852
:100970009B6913F0100F1CD023689A6912F0200FA6
:1009800019D1B5F1FF3FF7D0FFF74EFE801BA8420B
:1009900001D8002DF0D1636C43F020036364202361
:1009A00084F84130002384F8423084F8403001203C
:1009B00020E000201EE01022DA6123682025DD619E
:1009C0002046FFF7A4FF2268536823F0FF7323F447
:1009D0008B3323F4FF7323F001035360636C43F004
:1009E0000403636484F84150002384F8423084F89F
:1009F0004030012070BD70B504460D461646236890
:100A00009B6913F0020F1DD1324629462046FFF79D
:100A1000AAFFC8B9B5F1FF3FF1D0FFF705FE801B73
:100A2000A84201D8002DEAD1636C43F0200363642F
:100A3000202384F84130002384F8423084F8403089
:100A4000012000E0002070BD0120FCE7F8B505465C
:100A50000F4616461C462B689B6937EA03030CBFFA
:100A600001230023B34218D1B4F1FF3FF3D0FFF7C5
:100A7000DBFD069BC01AA04201D8002CEBD16B6CA9
:100A800043F020036B64202385F84130002385F870
:100A9000423085F84030012000E00020F8BD70B5FC
:100AA00005460C4616462B689B6913F0200F1AD199
:100AB000324621462846FFF756FFB0B9FFF7B4FD8E
:100AC000801BA04201D8002CEDD16B6C43F02003B9
:100AD0006B64202385F84130002385F8423085F887
:100AE0004030012070BD0020FCE70120FAE770B51E
:100AF00004460D46164623689B6913F0040F3ED149
:100B0000324629462046FFF72EFF0146002838D1FD
:100B100023689A6912F0200F13D1FFF785FD801B1F
:100B2000A84201D8002DE6D1636C43F02003636432
:100B3000202384F84130002384F840300121084606
:100B400070BD9A6912F0040F02D0228D002AF6D1EE
:100B50002022DA6121684B6823F0FF7323F48B3382
:100B600023F4FF7323F001034B600023636484F8D4
:100B7000412084F8423084F840300121DFE7002131
:100B8000DDE70121DBE70000002857D010B504465F
:100B900090F84130002B41D0242384F84130226862
:100BA000136823F0010313606368226823F0706305
:100BB00013612268936823F400439360E368012B78
:100BC00031D0A368226843F404439360E368022BA6
:100BD0002FD0226851681A4B0B4353602268D368A8
:100BE00023F40043D360236962691343A169226837
:100BF00043EA0123D360E369216A22680B4313604F
:100C00002268136843F0010313600020606420230E
:100C100084F84130206384F8420010BD80F84030F1
:100C200001F092FCB8E7A368226843F400439360A4
:100C3000CCE723684FF400625A60CAE7012070478E
:100C4000008000022DE9F04383B090F84150EDB2EE
:100C5000202D40F0A48090F84040012C00F0A480AA
:100C6000984617460E4604464FF0010980F840901A
:100C7000FFF7DAFC0546009019234A464FF400417D
:100C80002046FFF7E3FE002840F09080212384F8FF
:100C90004130102384F84230002363646762A4F873
:100CA0002A806363638D9BB2FF2B0AD9FF222285C2
:100CB000424B00934FF0807331462046FFF738FED9
:100CC00018E0628D92B222853C4B00934FF0007386
:100CD000D2B231462046FFF72BFE0BE0628D92B276
:100CE0002285002300934FF00073D2B23146204694
:100CF000FFF71EFE638D9BB2002B33D02A460A9964
:100D00002046FFF778FE002852D1626A23681278E5
:100D10009A62636A01336362638D013B9BB26385B0
:100D2000238D013B9BB22385628D92B2002AE1D0D4
:100D3000002BDFD100950A9B002280212046FFF77F
:100D400085FE002836D1638D9BB2FF2BC6D9FF22CA
:100D50002285002300934FF0807331462046FFF731
:100D6000E7FDC7E72A460A992046FFF798FE0346A3
:100D700010BB22682021D1612068426822F0FF72F6
:100D800022F48B3222F4FF7222F00102426084F8D6
:100D90004110002284F8422084F8402000E0022321
:100DA000184603B0BDE8F0830223F9E70123F7E713
:100DB0000123F5E70123F3E70123F1E70020008099
:100DC0002DE9F04383B090F84150EDB2202D40F072
:100DD000A48090F84040012C00F0A480984617466B
:100DE0000E4604464FF0010980F84090FFF71CFCC6
:100DF0000546009019234A464FF400412046FFF76C
:100E000025FE002840F09080222384F841301023F2
:100E100084F84230002363646762A4F82A80636325
:100E2000638D9BB2FF2B0AD9FF222285424B009390
:100E30004FF0807331462046FFF77AFD18E0628D4F
:100E400092B222853C4B00934FF00073D2B23146F0
:100E50002046FFF76DFD0BE0628D92B222850023E4
:100E600000934FF00073D2B231462046FFF760FD89
:100E7000638D9BB2002B33D02A460A992046FFF798
:100E800036FE002852D123685A6A636A1A70636A70
:100E900001336362238D013B9BB22385628D013A4E
:100EA00092B26285628D92B2002AE1D0002BDFD12E
:100EB00000950A9B002280212046FFF7C7FD0028ED
:100EC00036D1638D9BB2FF2BC6D9FF22228500232A
:100ED00000934FF0807331462046FFF729FDC7E7A6
:100EE0002A460A992046FFF7DAFD034610BB22681E
:100EF0002021D1612068426822F0FF7222F48B32F7
:100F000022F4FF7222F00102426084F841100022B4
:100F100084F8422084F8402000E00223184603B001
:100F2000BDE8F0830223F9E70123F7E70123F5E7A2
:100F30000123F3E70123F1E70024008090F841301A
:100F4000DBB2202B24D190F84030012B22D001239A
:100F500080F84030242380F841300268136823F081
:100F6000010313600268136823F48053136002685E
:100F70001368194311600268136843F0010313609A
:100F8000202380F84130002380F840301846704715
:100F9000022070470220704790F84130DBB2202BCE
:100FA00022D190F84030012B20D0012380F840302E
:100FB000242380F841300268136823F00103136092
:100FC0000268136823F4706343EA01211160026828
:100FD000136843F001031360202380F8413000239D
:100FE00080F8403018467047022070470220704752
:100FF000024A136843F48073136070470070004026
:1010000010B582B01B4B1A6C42F080521A641B6CF4
:1010100003F080530193019B174A136843F4803314
:101020001360FFF701FB0446134B5B6813F4803F2A
:1010300008D1FFF7F9FA001BB0F57A7FF4D9032045
:1010400002B010BD0C4A136843F400331360FFF77D
:10105000EBFA0446084B5B6813F4003F07D1FFF737
:10106000E3FA001BB0F57A7FF4D90320E8E700200B
:10107000E6E700BF0038024000700040002800F0A2
:10108000DB8170B582B00446036813F0010F29D0EC
:10109000A24B9B6803F00C03042B1AD09F4B9B6858
:1010A00003F00C03082B0FD06368B3F5803F40D0EA
:1010B000002B54D1994B1A6822F480321A601A68B6
:1010C00022F480221A6039E0944B5B6813F4800F9D
:1010D000EAD0924B1B6813F4003F03D06368002BE7
:1010E00000F0AC81236813F0020F75D08B4B9B6826
:1010F00013F00C0F5ED0894B9B6803F00C03082B98
:1011000053D0E368002B00F08A80844A136843F0D0
:1011100001031360FFF788FA0546804B1B6813F044
:10112000020F73D1FFF780FA401B0228F5D9032084
:1011300087E17A4A136843F48033136063682BB302
:10114000FFF772FA0546754B1B6813F4003FC9D1CF
:10115000FFF76AFA401B6428F5D9032071E1B3F563
:10116000A02F09D06D4B1A6822F480321A601A68D9
:1011700022F480221A60E1E7684B1A6842F4802268
:101180001A601A6842F480321A60D7E7FFF74CFA07
:101190000546624B1B6813F4003FA3D0FFF744FAE7
:1011A000401B6428F5D903204BE15C4B5B6813F4CA
:1011B000800FA6D1594B1B6813F0020F04D0E368CF
:1011C000012B01D001203CE1544A136823F0F803BD
:1011D000216943EAC1031360236813F0080F46D066
:1011E000636983B34D4A536F43F001035367FFF7BD
:1011F0001BFA0546494B5B6F13F0020F37D1FFF71F
:1012000013FA401B0228F5D903201AE1434A136858
:1012100023F0F803216943EAC1031360DCE73F4A86
:10122000136823F001031360FFF7FEF905463B4BFB
:101230001B6813F0020FCFD0FFF7F6F9401B02280E
:10124000F5D90320FDE0354A536F23F001035367BE
:10125000FFF7EAF90546314B5B6F13F0020F06D03A
:10126000FFF7E2F9401B0228F5D90320E9E02368E3
:1012700013F0040F7ED0294B1B6C13F0805F1ED13E
:10128000264B1A6C42F080521A641B6C03F0805398
:101290000193019B0125224B1B6813F4807F10D022
:1012A000A368012B21D0002B3CD11C4B1A6F22F0DC
:1012B00001021A671A6F22F004021A671AE0002569
:1012C000E9E7174A136843F480731360FFF7ACF93A
:1012D0000646134B1B6813F4807FE1D1FFF7A4F996
:1012E000801B6428F5D90320ABE00C4A136F43F050
:1012F00001031367A3685BB3FFF796F90646074B34
:101300001B6F13F0020F34D1FFF78EF9801B41F2EF
:1013100088339842F3D9032093E000BF003802409D
:1013200000700040052B09D0484B1A6F22F00102D3
:101330001A671A6F22F004021A67DBE7434B1A6F31
:1013400042F004021A671A6F42F001021A67D1E7ED
:10135000FFF76AF906463D4B1B6F13F0020F08D0EA
:10136000FFF762F9801B41F288339842F3D90320DA
:1013700067E0F5B9A369002B62D0344A926802F0A5
:101380000C02082A5FD0022B19D0304A136823F0D0
:1013900080731360FFF748F904462C4B1B6813F069
:1013A000007F47D0FFF740F9001B0228F5D9032042
:1013B00047E0264A136C23F080531364DAE7234A8C
:1013C000136823F080731360FFF72EF905461F4B57
:1013D0001B6813F0007F06D0FFF726F9401B022898
:1013E000F5D903202DE0E369226A1343626A43EAD8
:1013F0008213A26A5208013A43EA0243E26A43EACC
:10140000026343F00053114A5360136843F0807342
:101410001360FFF709F904460C4B1B6813F0007FBB
:1014200006D1FFF701F9001B0228F5D9032008E0D7
:10143000002006E0002004E001207047012000E0C9
:10144000002002B070BD0120FBE700BF0038024061
:10145000264B9B6803F00C03042B44D0082B01D0CF
:10146000234870472DE9F04B204B5A6802F03F02A9
:101470005B6813F4800F13D01C4B5968C1F38811BB
:1014800000231C48A1FB0001FEF7C2FE174B5B685E
:10149000C3F3014301335B00B0FBF3F0BDE8F08B15
:1014A000124B5B68C3F388131E4600275C010025BE
:1014B000E41A65EB0705A90141EA9461A001001B4C
:1014C00061EB0501CB0043EA5073C400A01943EB64
:1014D00007018B0243EA90538402204619460023F9
:1014E000FEF796FED2E70348704700BF003802407F
:1014F0000024F40040787D01002800F0A28070B53F
:101500000446524B1B6803F00F038B420CD24F4A28
:10151000136823F00F030B431360136803F00F03EA
:101520008B4201D0012070BD236813F0020F17D049
:1015300013F0040F04D0464A936843F4E0539360D9
:10154000236813F0080F04D0414A936843F46043C2
:1015500093603F4A936823F0F003A06803439360CD
:101560000D46236813F0010F31D06368012B20D0A2
:10157000022B25D0364A126812F0020F63D034498C
:101580008A6822F0030213438B60FFF74DF806468A
:101590002F4B9B6803F00C036268B3EB820F16D0ED
:1015A000FFF742F8801B41F288339842F0D90320BC
:1015B000B9E7274A126812F4003FE0D10120B2E7F0
:1015C000234A126812F0007FD9D10120ABE71F4BEC
:1015D0001B6803F00F03AB420CD91C4A136823F0BD
:1015E0000F032B431360136803F00F03AB4201D0CA
:1015F000012098E7236813F0040F06D0144A93687B
:1016000023F4E053E1680B439360236813F0080F61
:1016100007D00F4A936823F46043216943EAC1036A
:101620009360FFF715FF0A4B9B68C3F30313094A46
:10163000D35CD840084B18600020FEF7B9FF0020AB
:1016400071E70120704701206DE700BF003C0240B8
:1016500000380240C035000808000020014B18681F
:10166000704700BF0800002008B5FFF7F7FF044BE4
:101670009B68C3F38223034AD35CD84008BD00BFF4
:1016800000380240D035000808B5FFF7E7FF044BEB
:101690009B68C3F34233034AD35CD84008BD00BF04
:1016A00000380240D0350008F0B583B00446036826
:1016B00013F0010F0CD0AF4B9A6822F400029A602D
:1016C0009A68416B0A439A60436BC3B1002600E0FD
:1016D0000026236813F4002F15D0A64AD2F88C30C8
:1016E00023F44013E16B0B43C2F88C30E36BB3F58A
:1016F000801F06D0002B00F01B81002504E001268E
:10170000E7E70126F6E70025236813F4801F0FD0D2
:10171000984AD2F88C3023F44003216C0B43C2F872
:101720008C30236CB3F5800F00F0048103B90125E0
:10173000236813F0807F00D0012613F0200F40F0C3
:10174000FB80236813F0100F0CD08A4BD3F88C2049
:1017500022F08072C3F88C20D3F88C20A16B0A434E
:10176000C3F88C20236813F4804F08D0814AD2F844
:10177000903023F44033616E0B43C2F890302368FD
:1017800013F4004F08D07B4AD2F8903023F4402362
:10179000A16E0B43C2F89030236813F4803F08D049
:1017A000744AD2F8903023F44013E16E0B43C2F830
:1017B0009030236813F4003F08D06E4AD2F890307E
:1017C00023F44003216F0B43C2F89030236813F0D9
:1017D000400F08D0674AD2F8903023F00303616CC1
:1017E0000B43C2F89030236813F0800F08D0614A91
:1017F000D2F8903023F00C03A16C0B43C2F8903068
:10180000236813F4807F08D05A4AD2F8903023F02E
:101810003003E16C0B43C2F89030236813F4007F6F
:1018200008D0544AD2F8903023F0C003216D0B4306
:10183000C2F89030236813F4806F08D04D4AD2F874
:10184000903023F44073616D0B43C2F890302368ED
:1018500013F4006F08D0474AD2F8903023F4406365
:10186000A16D0B43C2F89030236813F4805F08D059
:10187000404AD2F8903023F44053E16D0B43C2F854
:101880009030236813F4005F08D03A4AD2F89030C1
:1018900023F44043216E0B43C2F89030236813F4C5
:1018A000800F08D0334AD2F8903023F08063A16FC4
:1018B0000B43C2F89030236813F4001F0DD02D4A5B
:1018C000D2F8903023F00063E16F0B43C2F8903000
:1018D000E36FB3F1006F00F09980236813F0080FF5
:1018E00000D0012513F4802F08D0224AD2F890307E
:1018F00023F04073616F0B43C2F89030236813F4F8
:10190000000F09D01B4AD2F8903023F08053D4F84E
:1019100080100B43C2F89030002E79D12368B3F1C8
:10192000007F75D0002D40F00681002003B0F0BD8F
:101930000125E9E60126F9E60E4B1A6C42F08052C9
:101940001A641B6C03F080530193019B0A4A1368CD
:1019500043F480731360FEF767FE0746064B1B686F
:1019600013F4807F0AD1FEF75FFEC01B6428F5D90F
:101970000320DBE70038024000700040B34B1B6FD0
:1019800013F4407315D0226B02F440729A4210D0C7
:10199000AE4B1A6F22F44072196F41F4803119670F
:1019A000196F21F4803119671A671B6F13F0010F4B
:1019B00012D1236B03F44072B2F5407F1DD0A34ACD
:1019C000936823F4F8139360A0490B6F226BC2F362
:1019D0000B0213430B67B4E6FEF726FE07469B4B4C
:1019E0001B6F13F0020FE4D1FEF71EFEC01B41F285
:1019F00088339842F3D9032098E79448826822F408
:101A0000F812934919400A438260DDE7012564E733
:101A10008E4A136823F080631360FEF705FE0646C6
:101A20008A4B1B6813F0006F06D0FEF7FDFD801B8C
:101A30006428F5D9032079E7236813F0010F13D048
:101A4000636B8BB9814AD2F88430D2F88410606815
:101A500003F4403343EA801301F070610B43A16843
:101A600043EA0173C2F88430236813F4002F03D0D3
:101A7000E26BB2F5801F06D013F4801F1ED0236CDA
:101A8000B3F5800F1AD1714AD2F88430D2F884109D
:101A9000606803F4403343EA8013E06843EA00637C
:101AA00001F0E0410B43C2F88430D2F88C3023F0CF
:101AB0001F03616A01390B43C2F88C30236813F0AD
:101AC000807F11D0614AD2F88400D2F88410666811
:101AD00023691B0443EA861300F07060034301F09E
:101AE000E0410B43C2F88430236813F0007F0DD02F
:101AF000626823691B0443EA8213E26843EA0263D3
:101B0000A26843EA0273514AC2F884304F4A13680C
:101B100043F080631360FEF787FD06464B4B1B685E
:101B200013F0006F7FF4FEAEFEF77EFD801B64288D
:101B3000F4D90320FAE6454A136823F08053136072
:101B4000FEF772FD0546414B1B6813F0005F06D09F
:101B5000FEF76AFD401B6428F5D90320E6E62368FA
:101B600013F4002F01D0E26B22B113F4801F1DD0BB
:101B7000236CDBB9354AD2F88830D2F88810606916
:101B800003F4403343EA8013A06943EA006301F0A1
:101B9000E0410B43C2F88830D2F88C3023F4F8537C
:101BA000A16A013943EA0123C2F88C30236813F497
:101BB000001F03D0E36FB3F1006F31D0236813F03F
:101BC000080F19D0214AD2F88810D2F888306069FD
:101BD00003F4403343EA801301F070610B43E16981
:101BE00043EA0173C2F88830D2F88C3023F44033D2
:101BF000E16A0B43C2F88C30144A136843F08053F7
:101C00001360FEF711FD0446104B1B6813F0005FD4
:101C100019D1FEF709FD001B6428F5D9032085E6DC
:101C20000A4AD2F88800D2F888106569236A1B0432
:101C300043EA851300F07060034301F0E0410B4379
:101C4000C2F88830BAE7002070E600BF00380240D2
:101C5000FFFCFF0F10B50446836802691343426915
:101C60001343C269134301680868994A0240134349
:101C70000B602268536823F44053E1680B435360C0
:101C8000A269236A1A4321688B6823F430631343E3
:101C90008B6023688F4A934218D08F4A934228D092
:101CA0008E4A93423DD08E4A934250D08D4A934201
:101CB00062D08D4A934277D08C4A934200F08C8058
:101CC0008B4A934200F0A0801023B6E0894BD3F8F2
:101CD000903003F00303032B09D8DFE803F002047C
:101CE000AD060123A9E00423A7E00823A5E0102303
:101CF000A3E0804BD3F8903003F00C030C2B0ED8EC
:101D0000DFE803F0070D0D0D090D0D0DA90D0D0DEB
:101D10000B00002391E004238FE008238DE01023C3
:101D20008BE0744BD3F8903003F03003102B0AD0C3
:101D300006D9202B00F09180302B06D108237CE0BF
:101D40001BB9002379E0042377E0102375E0694B89
:101D5000D3F8903003F0C003402B09D005D9802B75
:101D60007DD0C02B06D1082367E01BB9002364E0B7
:101D7000042362E0102360E05E4BD3F8903003F45C
:101D80004073B3F5807F0BD007D9B3F5007F68D0DF
:101D9000B3F5407F06D108234FE01BB900234CE088
:101DA00004234AE0102348E0524BD3F8903003F468
:101DB0004063B3F5806F0BD007D9B3F5006F52D0F5
:101DC000B3F5406F06D1082337E01BB9012334E097
:101DD000042332E0102330E0464BD3F8903003F474
:101DE0004053B3F5805F0BD007D9B3F5005F3CD00B
:101DF000B3F5405F06D108231FE01BB900231CE0A8
:101E000004231AE0102318E03A4BD3F8903003F47F
:101E10004043B3F5804F0BD007D9B3F5004F26D020
:101E2000B3F5404F06D1082307E01BB9002304E0B7
:101E3000042302E0102300E00223E269B2F5004F20
:101E400017D0082B00F2B380DFE803F0768B95B152
:101E50009EB1B1B1A8000223EFE70223EDE7022310
:101E6000EBE70223E9E70223E7E70223E5E70223A2
:101E7000E3E7082B5DD8DFE803F0051F3F5C485C13
:101E80005C5C5300FFF7F0FB6268530803EB400310
:101E9000B3FBF2F39BB20020A3F110014FF6EF72F7
:101EA000914200F287809AB222F00F02C3F34203FC
:101EB00013432268D36050E0FFF7E6FB62685308E3
:101EC00003EB4003B3FBF2F39BB20020E4E700BF57
:101ED000F369FFEF0010014000440040004800405B
:101EE000004C0040005000400014014000780040C9
:101EF000007C0040003802406268304B03EB520324
:101F0000B3FBF2F39BB20020C6E7FFF7A1FA6268C9
:101F1000530803EB4003B3FBF2F39BB20020BBE793
:101F20006268530803F58033B3FBF2F39BB20020E1
:101F3000B2E701200023AFE7FFF796FB626800EBF2
:101F40005203B3FBF2F39BB20020A3F110014FF652
:101F5000EF72914230D82268D36000232366636613
:101F600010BDFFF791FB626800EB5203B3FBF2F385
:101F70009BB20020E9E76268114B03EB5203B3FB0D
:101F8000F2F39BB20020E0E7FFF762FA626800EB31
:101F90005203B3FBF2F39BB20020D6E7626853080A
:101FA00003F50043B3FBF2F39BB20020CDE7012021
:101FB0000023CAE70120D0E70120CEE70048E8016E
:101FC0000024F400436A13F0010F06D0026853683E
:101FD00023F40033816A0B435360436A13F0020F0A
:101FE00006D00268536823F48033C16A0B43536000
:101FF000436A13F0040F06D00268536823F4802369
:10200000016B0B435360436A13F0080F06D002685C
:10201000536823F40043416B0B435360436A13F04E
:10202000100F06D00268936823F48053816B0B4332
:102030009360436A13F0200F06D00268936823F47C
:102040000053C16B0B439360436A13F0400F0AD0F7
:102050000268536823F48013016C0B435360036CD4
:10206000B3F5801F0BD0436A13F0800F06D00268CF
:10207000536823F40023816C0B435360704702685C
:10208000536823F4C003416C0B435360EBE72DE925
:10209000F04105460F4616469846069C2B68DB69BC
:1020A00037EA03030CBF01230023B3421CD1B4F170
:1020B000FF3FF3D0FEF7B8FAA0EB0800A04201D82A
:1020C000002CEBD12A68136823F4D07313602A68BC
:1020D000936823F00103936020236B67AB670023B1
:1020E00085F87030032000E00020BDE8F0812DE984
:1020F000F04182B01E46436F202B59D104460D4655
:102100009046B2FA82F35B09002908BF0123002B35
:1021100053D190F87030012B51D0012380F87030EA
:102120000023C36721234367FEF77EFA0746A4F81E
:102130005080A4F85280A368B3F5805F02D04FF0BE
:10214000000810E023690BB34FF000080BE038F8EB
:10215000023B2268C3F308039362B4F85230013B98
:102160009BB2A4F85230B4F852309BB28BB10096B7
:102170003B46002280212046FFF789FF08BB002D47
:10218000E5D015F8012B23689A62E6E7A8460025FA
:10219000E9E700963B46002240212046FFF777FF03
:1021A000034680B920226267002284F8702000E094
:1021B0000223184602B0BDE8F0810123F9E70223AB
:1021C000F7E70323F5E70323F3E710B582B00446EE
:1021D0000023C367FEF728FA2268126812F0080F7E
:1021E00007D120236367A367002084F8700002B042
:1021F00010BD6FF07E430093034600224FF40011A0
:102200002046FFF744FF0028EBD00320EFE768B338
:1022100010B50446436F03B3242363672268136831
:1022200023F0010313602046FFF714FD012813D0AB
:10223000636ABBB92268536823F4904353602268F1
:10224000936823F02A0393602268136843F0010324
:1022500013602046FFF7B9FF10BD80F8703000F022
:10226000ABF9D9E72046FFF7ADFEE3E70120704761
:1022700030B58BB000240594069407940894099413
:102280001F4B1A6B42F002021A631A6B02F0020231
:102290000092009A1A6B42F480721A631A6B02F46D
:1022A00080720192019A1A6B42F004021A631A6B4F
:1022B00002F004020292029A1A6B42F001021A63BF
:1022C0001A6B02F001020392039A1A6B42F0800229
:1022D0001A631B6B03F080030493049B094D224691
:1022E00002212846FEF704FB0223059301230693EF
:1022F0000794089405A92846FEF70AFA0BB030BDEA
:10230000003802400020024038B50D4C0D4B2360D0
:102310000D4B63600025A5600123E36025616561C5
:10232000A561E56125622046FEF72EFC2946204680
:10233000FEF704FE29462046FEF72EFE38BD00BFFC
:10234000A000002000540040FFEAC00008B5094882
:10235000094B03604FF4E133436000238360C360A3
:1023600003610C2242618361C36103624362FFF730
:102370004EFF08BDEC0000200010014010B51446CF
:10238000012809D0022816D000F0F8F909230360CB
:102390004FF0FF34204610BD4FF0FF3392B20D488E
:1023A000FFF7A5FE0028F5D000F0E8F9052303604B
:1023B0004FF0FF34EEE74FF0FF3392B20548FFF7DE
:1023C00096FE0028E6D000F0D9F9052303604FF00F
:1023D000FF34DFE7EC00002030B5B5B0302200213B
:1023E00028A800F0F5F90024239424942594269439
:1023F00027948422214602A800F0EAF9FEF7F8FDAE
:102400001F4B1A6C42F080521A641B6C03F080530D
:102410000093009B1B4B1A6842F440421A601B68F1
:1024200003F440430193019B0225289501232B933C
:1024300010232C932E952F9408233093C823319387
:102440003295339528A8FEF719FEFEF7D9FD0F2324
:102450002393249525944FF4A05326934FF480534F
:102460002793062123A8FFF747F844F2400302937D
:1024700013941B9402A8FFF717F935B030BD00BFC5
:10248000003802400070004070B584B0FEF7B4F828
:10249000FFF7A2FFFFF7ECFEFFF736FFFFF756FF4F
:1024A00020238DF8083047238DF809304FF4FA6364
:1024B0000093022302AA32211448FEF7C3FB04ACA6
:1024C000A82304F8083D114D4FF47A7600960123B5
:1024D000224632212846FEF7B5FB00960623224607
:1024E00033212846FEF76CFC02210948FEF706FA64
:1024F0009DF90D309DF90B209DF90910054800F05C
:102500006FF9C820FEF796F8D9E700BFA0000020B9
:1025100000200240D835000882B00A4B1A6C42F005
:1025200080521A641A6C02F080520092009A5A6C1F
:1025300042F480425A645B6C03F480430193019B34
:1025400002B070470038024010B588B000230393F2
:1025500004930593069307930268144B9A4201D0A3
:1025600008B010BD124C236B43F002032363236BAE
:1025700003F002030193019B4FF440730393122372
:10258000049301230593032306930423079303A9CC
:102590000848FEF7BDF8236C43F400132364236C52
:1025A00003F400130293029BDAE700BF00540040DB
:1025B000003802400004024070B588B00023039345
:1025C0000493059306930793026803F1804303F590
:1025D00088339A4201D008B070BD03F594335A6C29
:1025E00042F010025A645A6C02F010020092009AF3
:1025F0001A6B42F002021A631A6B02F00202019295
:10260000019A1A6B42F001021A631B6B03F001037B
:102610000293029B802303930226049603250695CA
:102620000724079403A90848FEF772F84FF40073D3
:1026300003930496002305930695079403A9034882
:10264000FEF766F8C7E700BF000402400000024042
:102650007047FEE7FEE7FEE7FEE77047704770470A
:1026600008B5FDF7D5FF08BD70B50D461646002428
:1026700004E0AFF30080287001340135B442F8DB88
:10268000304670BD08B503460B4A126842B10A4A8B
:10269000106803446A46934206D8074A136008BD8F
:1026A000054A06491160F2E700F068F80C23036060
:1026B0004FF0FF30F3E700BF8C00002070010020D6
:1026C0004FF0FF3070474FF400534B6000207047CD
:1026D000012070470020704710B40F4AD2F88830AC
:1026E00043F47003C2F888300C4B196841F00101C3
:1026F0001960002098601C68094921401960094947
:102700005960196821F480211960D8604FF0006386
:1027100093605DF8044B704700ED00E00038024024
:10272000FFFFF6FE10300024DFF834D0002103E074
:102730000C4B5B58435004310B480C4B42189A42E7
:10274000F6D30B4A02E0002342F8043B094B9A42BD
:10275000F9D3FFF7C1FF00F017F8FFF795FE7047B8
:10276000000005209C3600080000002070000020BA
:102770007000002070010020FEE70000014B186887
:10278000704700BF0C00002070B50D4E0D4CA41B0F
:10279000A4100025A54209D10B4E0C4C00F004FFFB
:1027A000A41BA4100025A54205D170BD56F8253004
:1027B00098470135EEE756F8253098470135F2E79E
:1027C00094360008943600089436000898360008BD
:1027D00002440346934200D1704703F8011BF9E716
:1027E0000FB40A4B13B51C6824B1A36913B9204672
:1027F00000F04EF805AB049AA1680193204600F062
:1028000055F902B0BDE8104004B070470C0000203C
:10281000002310B50446C0E900338360818143661C
:10282000C281C0E904338361194608225C30FFF796
:10283000CFFF054B6362054BA362054BE362054B7B
:102840002462236310BD00BF093000082B3000084C
:102850006330000887300008014900F085B800BFE8
:102860006133000870B54A1E682555430E4605F1D0
:10287000740100F097F8044640B10021C0E9001649
:102880000C30A06005F16802FFF7A2FF204670BD82
:10289000836910B5044633BBC0E912330365124B9C
:1028A000124A1B688262984204BF0123836100F0D0
:1028B0001FF86060204600F01BF8A060204600F082
:1028C00017F80022E06004216068FFF7A1FF0122F1
:1028D0000921A068FFF79CFF02221221E068FFF7A0
:1028E00097FF0123A36110BDF435000859280008A3
:1028F000F8B51B4B1E68B369074613B93046FFF79E
:10290000C7FF4836D6E90134013B03D5336833B1FC
:102910003668F7E7B4F90C506DB16834F4E7042178
:102920003846FFF79FFF30600028F1D10C233B6051
:1029300004462046F8BD0B4B6566C4E90055A5600A
:10294000C4E90335C4E905550822294604F15C00B1
:10295000FFF73EFFC4E90D55C4E91255E9E700BF92
:10296000F43500080100FFFF2DE9F8438046894651
:1029700000F14804002614B93046BDE8F883D4E9D4
:102980000175013F01D52468F5E7AB89012B07D913
:10299000B5F90E30013303D029464046C8470643F7
:1029A0006835EEE770B5CD1C25F0030508350C2D14
:1029B00038BF0C25002D064601DBA94203D90C23A4
:1029C0003360002070BD00F06BFD214A1468214681
:1029D00091B9204C23681BB9304600F005FB2060FC
:1029E0002946304600F000FB431C24D10C23336001
:1029F000304600F056FDE4E70B685B1B18D40B2B48
:102A00000FD90B60CD50CC18304600F04AFD04F1D0
:102A10000B00231D20F00700C31AD3D05A42E25006
:102A2000D0E78C424B6816BF636013600C46EBE73F
:102A30000C464968CCE7C41C24F00304A04205D02E
:102A4000211A304600F0D0FA0130CFD02560DBE704
:102A500094000020980000209368013B002B10B4E4
:102A6000936008DA9469A34201DB0A2903D15DF877
:102A7000044B00F00DBB1368581C10601970084619
:102A80005DF8044B7047F8B506460F461446D51856
:102A9000AC4201D1002007E03A4614F8011B304651
:102AA000FFF7DAFF431CF3D1F8BD00002DE9F04F2A
:102AB0000C469DB017461D46064618B183690BB9F2
:102AC000FFF7E6FE7C4B9C4258D17468A389180737
:102AD0005ED52369002B5BD00023099320238DF85A
:102AE000293030238DF82A3003954FF0010BB8467A
:102AF000454615F8013B0BB1252B54D1B8EB070A1D
:102B00000BD053463A4621463046FFF7BCFF013012
:102B100000F0C280099B5344099398F80030002BC1
:102B200000F0BA8000234FF0FF32CDE90523049373
:102B300007938DF853301A93A846052218F8011B05
:102B40005E48FDF7E5FC049B78BBD90644BF202214
:102B50008DF853201A0744BF2B228DF853202A7872
:102B60002A2A2AD0079AA84600200A25414611F8A9
:102B7000013B303B092B69D960B324E0504B9C42A8
:102B800001D1B468A2E74F4B9C4208BFF4689DE7AF
:102B90002146304600F0E0FA00289DD04FF0FF308B
:102BA0001DB0BDE8F08FA846A2E7444A801A0BFA90
:102BB00000F0184304904546BEE7039A111D1268C1
:102BC0000391002A01DB079204E0524243F0020322
:102BD0000792049398F800302E2B0ED198F801300C
:102BE0002A2B38D1039B1A1D1B680392002BB8BFF8
:102BF0004FF0FF3308F102080593334D98F80010A9
:102C000003222846FDF784FC40B14023401B03FA11
:102C100000F0049B034308F10108049398F80010A6
:102C20002A488DF82810062208F10107FDF770FCEC
:102C3000002837D0264B1BBB039B073323F0070329
:102C400008330393099B4B44099350E705FB023279
:102C5000012088468AE7002308F1010805931946F8
:102C60000A25404610F8012B303A092A03D9002BD7
:102C7000C3D00591C1E705FB012101238046F0E7A0
:102C800003AB00932246134B04A93046AFF30080F8
:102C9000B0F1FF3F8146D5D1A3895B063FF57EAFFA
:102CA00009987DE703AB009322460A4B04A93046FE
:102CB00000F088F8ECE700BF183600085836000826
:102CC00038360008F83500085E360008623600081D
:102CD00000000000872A00082DE9F04791461F46B2
:102CE0008A680B69DDF820809342B8BF1346C9F8A3
:102CF000003091F8432006460C4612B10133C9F862
:102D000000302368990642BFD9F800300233C9F871
:102D10000030256815F0060507D104F1190AE368AB
:102D2000D9F800209B1AAB4228DC94F84330226883
:102D3000003318BF012392062DD404F14302394613
:102D40003046C047013020D02368E568D9F800201C
:102D500003F00603042B08BFAD1AA36822690CBF59
:102D600025EAE57500259342C4BF9B1AED184FF084
:102D700000091A344D451AD1002008E001235246BB
:102D800039463046C047013003D14FF0FF30BDE82F
:102D9000F0870135C3E7E1185A1C302081F8430061
:102DA000224494F8451082F843100233C5E701230A
:102DB000224639463046C0470130E6D009F10109C4
:102DC000D8E700002DE9F04301F1430C0C46097EE1
:102DD00085B06E291746064698460C9A00F0B380D7
:102DE00022D8632936D00AD8002900F0B9805829A2
:102DF00000F0838004F1420584F8421032E0642937
:102E000001D06929F6D120681368050603F1040191
:102E10002AD51B681160002B03DA2D225B4284F84F
:102E200043206F480A2239E0732900F09D8008D8BA
:102E30006F2920D07029DDD1236843F0200323605F
:102E400003E0752917D07829D4D1782384F8453048
:102E5000644855E01368191D1B68116004F14205B0
:102E600084F8423001238CE01B68116010F0400FA1
:102E700018BF1BB2CFE713682568181D106028061D
:102E800001D51B6802E06806FBD51B8854486F29F2
:102E900014BF0A220822002184F843106568A56047
:102EA000002DC0F29580216821F004012160002BE3
:102EB0003DD1002D40F08E806546082A0BD1236855
:102EC000DB0708D5236962689A42DEBF302305F824
:102ED000013C05F1FF35ACEB05032361CDF8008023
:102EE0003B4603AA21463046FFF7F6FE01304DD19E
:102EF0004FF0FF3005B0BDE8F083394884F8451045
:102F0000136821681D1D1B6815600A060BD5CA07CA
:102F100044BF41F0200121601BB9226822F0200249
:102F200022601022B7E74D0648BF9BB2EFE7654627
:102F3000B3FBF2F102FB1133C35C05F8013D0B4614
:102F40000029F5D1B9E7136825686169181D10607B
:102F500028061B6801D5196002E06A06FBD51980B6
:102F6000002323616546B9E71368191D11601D68C8
:102F7000626800212846FDF7CBFA08B1401B60606B
:102F800063682361002384F84330A7E723692A4656
:102F900039463046C0470130AAD023689B0713D476
:102FA000E068039B9842B8BF1846A3E701234A464E
:102FB00039463046C04701309AD00135E368039A5C
:102FC0009B1AAB42F2DCEBE7002504F11909F5E7A7
:102FD000002BACD1037884F8423004F142056CE751
:102FE000693600087A36000838B5064C00230546D5
:102FF00008462360FFF746FB431C02D1236803B158
:103000002B6038BD6C01002010B50C46B1F90E10D4
:1030100000F096FA0028ABBF636DA3891B1823F458
:103020008053ACBF6365A38110BD2DE9F0411F46FD
:103030008B89DB0505460C46164605D50223002282
:10304000B1F90E1000F0B6F9A389B4F90E1023F40B
:103050008053A38132463B462846BDE8F04100F04C
:1030600069B810B50C46B1F90E1000F0A3F9431C75
:10307000A38915BF606523F4805343F48053A38173
:1030800018BFA38110BDB1F90E1000F0D3B8000035
:10309000F8B50E461446054618B183690BB9FFF71B
:1030A000F7FB214B9C422AD16C68A369A360A389DA
:1030B0001A072ED5236963B323692068C01A636990
:1030C000F6B28342374604DC2146284600F048F930
:1030D00028BBA368013BA36023685A1C22601E70B2
:1030E00063690130834204D0A389DB0719D50A2E16
:1030F00017D12146284600F033F990B10FE00B4B71
:103100009C4201D1AC68D0E7094B9C4208BFEC68F7
:10311000CBE72146284600F01FF80028CCD04FF01E
:10312000FF373846F8BD00BF1836000838360008AB
:10313000F835000838B5074C054608461146002208
:1031400022601A46FFF71AF9431C02D1236803B123
:103150002B6038BD6C010020324B70B51D680646EF
:103160000C4625B1AB6913B92846FFF791FB2E4BEE
:103170009C420FD16C68B4F90C309AB215072CD46C
:10318000D00611D40922326043F04003A3814FF0EE
:10319000FF303EE0254B9C4201D1AC68EBE7244B6D
:1031A0009C4208BFEC68E6E7510712D5616B41B15C
:1031B00004F14403994202D0304600F073F9002331
:1031C0006363A38923F02403A3810023636023693D
:1031D0002360A38943F00803A38123694BB9A38922
:1031E00003F42073B3F5007F03D02146304600F08E
:1031F00017F9A28912F001030CD00023A3606369C0
:103200005B42A361236953B9B4F90C3013F0800019
:10321000BAD170BD920758BF6369A360F2E700207E
:10322000F7E700BF0C000020183600083836000809
:10323000F835000838B5064C0023054608462360DB
:10324000FFF73EFA431C02D1236803B12B6038BD5F
:103250006C0100208A892DE9F041054610070C46D3
:1032600058D44B68002B05DC0B6C002B02DC0020D3
:10327000BDE8F081E66A002EF9D0002312F48052F6
:103280002F68216A2B6032D0606DA3895A0705D55B
:103290006368C01A636B0BB1236CC01A002302462B
:1032A000E66A216A2846B047431CA38906D12968EB
:1032B0001D2948D8294ACA40D60744D50022626051
:1032C000D9042269226004D5421C01D12B6803B9BC
:1032D0006065616B2F600029C9D004F144039942F5
:1032E00002D0284600F0DEF800206063C0E701232A
:1032F0002846B047411CC8D12B68002BC5D01D2BD8
:1033000001D0162B01D12F60B1E7A38943F0400310
:10331000A381ADE70F69002FA9D093070E6808BFFE
:103320004B690F6018BF0023A6EB07088B60B8F14C
:10333000000F9CDD43463A46216AA66A2846B047FC
:10334000002806DCA38943F04003A3814FF0FF303F
:103350008EE70744A8EB0008E9E700BF0100402022
:1033600038B50B6905460C46DBB118B183690BB95A
:10337000FFF78EFA0C4B9C4209D16C68B4F90C3003
:103380007BB121462846BDE83840FFF763BF074BB5
:103390009C4201D1AC68F1E7054B9C4208BFEC6848
:1033A000ECE7002038BD00BF1836000838360008AA
:1033B000F835000838B5074C054608461146002286
:1033C00022601A46FFF786F9431C02D1236803B135
:1033D0002B6038BD6C01002070B50E46B1F90E109F
:1033E000002996B014461D4607DA00232B60B389E6
:1033F0001A0610D44FF480630EE06A4600F0B2F86B
:103400000028F2DB019A02F47042A2F500535A42FE
:103410005A412A60EEE740230020236016B070BDB9
:103420008B8973B59D0706460C4607D504F1470303
:10343000236023610123636102B070BD01AB6A4662
:10344000FFF7CAFF009905463046FFF7ABFA48B9C7
:10345000B4F90C309A05EFD423F0030343F00203D0
:10346000A381E3E70D4BB362A389206043F080039F
:10347000A381009B6361019B20615BB1B4F90E10D5
:10348000304600F081F828B1A38923F0030343F00C
:103490000103A381A3891D43A581CDE75928000815
:1034A0007047704738B50546002945D051F8043CAF
:1034B0000C1F002BB8BFE418FFF7F2FF1F4A136878
:1034C000104633B9636014602846BDE83840FFF702
:1034D000E8BFA3420CD921686218934204BF1A685E
:1034E0005B68636004BF521822600460ECE7134617
:1034F0005A680AB1A242FAD919685818A0420BD1E9
:1035000020680144581882421960DDD11068526861
:103510005A6001441960D7E702D90C232B60D3E726
:10352000206821188A4204BF11685268626004BF93
:10353000091821605C60C7E738BD00BF9400002017
:1035400038B5074C054608461146002222601A4647
:10355000FFF78AF8431C02D1236803B12B6038BD02
:103560006C01002038B5074C00230546084611467B
:103570002360FFF7A8F8431C02D1236803B12B6036
:1035800038BD00BF6C01002038B5064C002305464D
:1035900008462360FFF79CF8431C02D1236803B15F
:1035A0002B6038BD6C010020F8B500BFF8BC08BC2A
:1035B0009E467047F8B500BFF8BC08BC9E467047F1
:1035C00000000000000000000102030406070809D3
:1035D0000000000001020304783A202564206720DF
:1035E000793A2025642067207A3A20256420670DE7
:1035F0000A00000010000020000000000000000091
:1036000000000000000000000000000000000000BA
:1036100000000000000000000000000000000000AA
:10362000000000000000000000000000000000009A
:10363000000000000000000000000000000000008A
:10364000000000000000000000000000000000007A
:103650000000000000000000232D302B2000686CCB
:103660004C006566674546470030313233343536A5
:1036700037383941424344454600303132333435DE
:0C3680003637383961626364656600000B
:08368C00B4CBFF7F0100000038
:04369400F501000834
:04369800D101000854
:10369C0001000000100000000024F40010000020C5
:1036AC00000000001836000838360008F83500080D
:1036BC0000000000000000000000000000000000FE
:1036CC0000000000000000000000000000000000EE
:1036DC0000000000000000000000000000000000DE
:1036EC0000000000000000000000000000000000CE
:1036FC0000000000000000000000000000000000BE
:04000005080027299F
:00000001FF
